:020000040000FA
:1000000058F30010C1010000C5010000C701000045
:10001000C9010000CB010000CD010000000000007C
:10002000000000000000000000000000CF01000000
:10003000D101000000000000D30100002D430000AA
:10004000D7010000D7010000D701000019470000C8
:10005000D701000065470000D7010000B14700004C
:10006000D7010000D7010000D7010000D701000030
:10007000D7010000D7010000D7010000D701000020
:10008000D7010000D7010000D7010000D701000010
:10009000D7010000D7010000D7010000D701000000
:1000A0001D4C0000D7010000D7010000D70100005F
:1000B000C1120000C92C0000D7010000D7010000C8
:1000C000D7010000D7010000D7010000D7010000D0
:1000D000D7010000D7010000D7010000D7010000C0
:1000E000D701000000F002F800F05AF80AA090E8EA
:1000F000000C82448344AAF10107DA4501D100F0E3
:100100004FF8AFF2090EBAE80F0013F0010F18BF55
:10011000FB1A43F001031847684E0300884E0300A2
:100120000A444FF0000C10F8013B13F0070408BF1D
:1001300010F8014B1D1108BF10F8015B641E05D0BB
:1001400010F8016B641E01F8016BF9D113F0080F70
:100150001EBF10F8014BAD1C0C1B09D16D1E58BF02
:1001600001F801CBFAD505E014F8016B01F8016B39
:100170006D1EF9D59142D6D37047000000230024AC
:1001800000250026103A28BF78C1FBD8520728BFA7
:1001900030C148BF0B6070471FB51FBD10B510BD03
:1001A00000F072F91146FFF7F7FF07F06BFF00F060
:1001B00090F903B4FFF7F2FF03BC00F091F90000DF
:1001C00008480047FEE7FEE7FEE7FEE7FEE7FEE73A
:1001D000FEE7FEE7FEE7FEE703480449044A054B55
:1001E00070470000E500000058A3001058F300100D
:1001F00058B3001058B3001053EA020C00F06980A5
:100200002DE9F04B4FF00006002B1FBFB3FA83F52A
:1002100003FA05F424FA05F65E4012BF1643B2FA5B
:1002200082F502FA05F4C5F120051EBF22FA05FC8D
:1002300044EA0C04203556EA044C4FEA144418BF33
:10024000641C4FF000084FF00009904271EB030C62
:1002500039D3002919BFB1FA81F701FA07F6B0FACC
:1002600080F700FA07F6C7F120071EBF20FA07FC47
:1002700046EA0C062037B6FBF4FCA7EB0507103F57
:1002800007F01F0BCBF120060CFA0BFB2CFA06F63D
:1002900044BFB3460026202FA4BF5E464FF0000B9C
:1002A0005BEA060C08BF4FF0010B19EB0B09ABFB27
:1002B000027C48EB0608C01B06FB02CC0BFB03CC00
:1002C00071EB0C01C1E70B46024641464846BDE8CA
:1002D000F08B13B54FF000004FF00001AFF300803A
:1002E000BDE81C40704740EA010310B59B070FD1E1
:1002F000042A0DD310C808C9121F9C42F8D020BA96
:1003000019BA884201D9012010BD4FF0FF3010BD4D
:100310001AB1D30703D0521C07E0002010BD10F81B
:10032000013B11F8014B1B1B07D110F8013B11F8E1
:10033000014B1B1B01D1921EF1D1184610BD032A9F
:1003400040F2308010F0030C00F0158011F8013BF2
:10035000BCF1020F624498BF11F801CB00F8013BD9
:1003600038BF11F8013BA2F1040298BF00F801CB9D
:1003700038BF00F8013B11F0030300F02580083A74
:10038000C0F0088051F8043B083A51F804CBA0E8CB
:100390000810F5E7121D5CBF51F8043B40F8043B20
:1003A000AFF30080D20724BF11F8013B11F801CB55
:1003B00048BF11F8012B24BF00F8013B00F801CB26
:1003C00048BF00F8012B704710B5203AC0F00B80F1
:1003D000B1E81850203AA0E81850B1E81850A0E849
:1003E0001850BFF4F5AF5FEA027C24BFB1E81850A3
:1003F000A0E8185044BF18C918C0BDE810405FEA13
:10040000827C24BF51F8043B40F8043B08BF70478E
:10041000D20728BF31F8023B48BF11F8012B28BF93
:1004200020F8023B48BF00F8012B70474FF0000254
:1004300000B5134694469646203922BFA0E80C50DA
:10044000A0E80C50B1F12001BFF4F7AF090728BFB5
:10045000A0E80C5048BF0CC05DF804EB890028BF31
:1004600040F8042B08BF704748BF20F8022B11F05A
:10047000804F18BF00F8012B7047704770477047D6
:1004800000487047F8A200107546FFF7F9FFAE4626
:1004900005006946534620F00700854618B020B590
:1004A000FFF79AFEBDE820404FF000064FF000072E
:1004B0004FF000084FF0000B21F00701AC46ACE80C
:1004C000C009ACE8C009ACE8C009ACE8C0098D4679
:1004D00070470446AFF300802046FFF76AFE000035
:1004E00001491820ABBEFEE726000200704700005D
:1004F00010B50F4800680F490968884217D30C48A7
:100500000068C8300B4908600B48007828B94FF4E0
:100510008021042001F04EF804E04FF480210420F3
:1005200001F08CF804480078C0430349087010BDFE
:1005300048030010780300107403001070B50446DF
:100540003948007808286BD2DFE800F0040A10165A
:100550002336494F692C02D101203349087060E0ED
:10056000324804700220304908705AE03048047064
:1005700003202D49087054E02E48048000884FF66F
:10058000FF7101EA00202B490880042026490870E9
:1005900047E028480088204426490880084600880B
:1005A00018B906202049087005E005201E4908708A
:1005B00000202149088034E020481F49098844541C
:1005C0001D480088401C1C490880084600881949BD
:1005D0000988884202D106201349087021E0184892
:1005E00004700720104908701BE0164804700820AA
:1005F0000D490870124805784FF6FF7000EA05258E
:1006000010480078284485B20A4801880B4800F059
:1006100099F90646B54202D101200B49087000E065
:1006200000BF00BF70BD0000B0020010C10200108A
:10063000C2020010C4020010C8020010F81D001011
:10064000C6020010C7020010C00200102DE9F04FD2
:10065000ADF64C0D0546884616469946C6EBC600D3
:10066000012101EB800B02AC2670641CC8EBC800B2
:1006700005EB80054FF0000A6BE028782070641CC1
:100680002888000A2070641C2868000C2070641CF4
:100690002868000E2070641C28792070641CA888CB
:1006A000000A2070641C6868000C2070641C686874
:1006B000000E2070641C287A2070641C2889000AAF
:1006C0002070641CA868000C2070641CA868000ED0
:1006D0002070641C287B2070641CA889000A20708C
:1006E000641CE868000C2070641CE868000E207030
:1006F000641C287C2070641C288A000A2070641CFA
:100700002869000C2070641C2869000E2070641C8D
:10071000287D2070641CA88A000A2070641C686907
:10072000000C2070641C6869000E2070641C287E18
:100730002070641C288B000A2070641CA869000CBF
:100740002070641CA869000E2070641C1C350AF11E
:10075000010AB24591D30DF648001FFA8BF20DF64F
:10076000080302A90090422003F0F0FB07461FB9DE
:10077000BDF84808012805D04FF0FF300DF64C0DAC
:10078000BDE8F08F9DF8080889F800000020F5E723
:1007900030B593B0002412A8224602AB01A9009004
:1007A000502003F0D3FB054615B9002013B030BD2F
:1007B0004FF0FF30FAE72DE9F04798B004460D46B8
:1007C00016461F46DDF880904FF0140802940395FA
:1007D00004960597CDF8189017A8424607AB02A9D2
:1007E0000090532003F0B2FB8246BAF1000F04D010
:1007F0004FF0FF3018B0BDE8F0870020FAE730B5C1
:1008000093B0002412A8224602AB01A90090512007
:1008100003F09CFB054615B9002013B030BD4FF026
:10082000FF30FAE7012907D1084A126842EA0002BC
:10083000074BC3F8C42007E031B9044A126822EA22
:100840000002034BC3F8C42070470000C4C00F402F
:1008500000C00F40014631B1012907D0022908D05C
:1008600003290CD108E00748006870470648006873
:10087000FBE706480068F8E705480068F5E700BFB1
:10088000FEE7000000000010040000100800001047
:100890000C00001070B506460D4636B1012E12D080
:1008A000022E1ED0032E3ED129E02148006820F000
:1008B0001F0405F01F0040EA04041E48C0F804416C
:1008C00003F046FD31E01C48006820F01F0405F0ED
:1008D0001F0040EA04041748C0F8A84103F038FD9F
:1008E00023E01648006820F0010405F0010040EA0A
:1008F00004041048C0F8004103F02AFD15E0104838
:10090000006820F01F0405F01F0040EA04040948B5
:10091000D0F8080105F01F0140EA0100084908600D
:1009200003F016FD01E000BFFEE700BF70BD000050
:1009300004C10F4000C00F40A8C10F4000C10F40CC
:1009400008C10F4070B502460C46FF25FF2309E0A1
:1009500012F8010B80EA05010648405C80EA0305B5
:100960000548435C2000A4F10106B4B2F0D143EA8B
:10097000052070BDAC000010AC010010F8B50446B5
:100980000E461648056809E00020009002E0009835
:10099000401C0090124900988842F8D3002000F0D3
:1009A00021F80228F0D0E80000F10050076C4EB1A9
:1009B000601EC0F30A0040F04041E80000F1005022
:1009C000416408E0601EC0F30A0040F00041E80006
:1009D00000F1005041643846F8BD0000284108206D
:1009E00040420F0010B504464CB912480168124845
:1009F000D0F828211148006800F1010308E01048F0
:100A000001680D48D0F814210E48006800F1010378
:100A1000914201D1002010BD21B9581E904201D150
:100A20000220F8E7501C814201D10220F3E70120A7
:100A3000F1E700002C410820004008202441082054
:100A40001841082010410820084801680848016042
:100A50004FEAC10000F100500068064A10604FEAFA
:100A6000C10000F1005000687047000018410820E4
:100A7000180000101C000010054801684FEAC10072
:100A800000F10050008CC0F30A0000F10100704733
:100A900018410820034801684FEAC10000F10050E6
:100AA000006A704718410820034801684FEA810036
:100AB00000F10050806D7047284108201CB50446A5
:100AC0002C2221463D48FFF77FFC01218807FFF7D4
:100AD000A9FE4FF44F403A49086078203949086030
:100AE0004FF06400019002E00198401E01900198CF
:100AF0000028F9D1022032490860302048604001C6
:100B000048610020FFF7A6FE2F49B0FBF1F00090EE
:100B10000020019009E02D480199405C009988422D
:100B200000DB05E00198401C019001980F28F2D3EA
:100B300000BF01980F2801D300201CBD0198401C64
:100B40000190A0891E494861019800F00F004FF400
:100B5000004141EA80001A4908620846006A20F410
:100B60000040086243F20F7008611220C860400123
:100B700014490860206930B120462169884701285E
:100B800001D00020D9E7A06808F0AEFB08F072FBA6
:100B900008F084FC26200E4908604FF001014FF058
:100BA000FF0000F019F84FF6FF700A49086000F0E6
:100BB00081F800F047F80120BFE700007C03001037
:100BC0000040082000410820A0252600769E000055
:100BD00000420820E84F0820012905D1054A126883
:100BE0000243044B1A6004E0024A12688243014B3C
:100BF0001A607047E44F0820014601F01F000F4BB8
:100C00001B7903F01F0340EA03200D4B986201207B
:100C10005862002200BF06E00948406B10F0010F47
:100C200000D103E0521CB2F5A02FF5D300BF002085
:100C3000034B58621846006B80B270477C0300106B
:100C4000004008200648006840F001000549C1F84E
:100C500000010846006840F001000860704700008D
:100C6000004108200040082078B10A49496841F055
:100C70000101084A51600849096841F48061C2F8DD
:100C800000114FF01501916002E01221014A9160BC
:100C900070470000004008200041082020B14FF4B8
:100CA0008071034A916102E00021014A916170471D
:100CB000004008200348006840F002000249C1F8E3
:100CC00000017047004108200040082005490868DD
:100CD00000F101010846042900D100200149086003
:100CE00070470000184108200749086800F1010119
:100CF0000846064AD2F8242102F10102914200D1AD
:100D00000020014908607047284108200040082061
:100D10002DE9F0470746D7F804903D681948D0F808
:100D200014A0681C4FF6FE7100EA0105B5FBFAF647
:100D30000DB9BDE8F0871FE0002E01DD504600E050
:100D40002846044604B919E02EB9A0B20121FFF7E4
:100D500015FE804604E0A0B20021FFF70FFE80469A
:100D600004E039F8020B28F8020BA41E002CF8D17D
:100D7000761E2D1BFFF7B8FF002EDDDA00BF00BF87
:100D8000D7E700000040082010B500F01F030C4C0E
:100D9000247904F01F0443EA04230A4CA362234687
:100DA000D962002200BF06E0064B5B6B13F0010F17
:100DB00000D103E0521CB2F5A02FF5D300BF10BD47
:100DC0007C0300100040082010B50020FFF742FD12
:100DD0000A49884204D901210220FFF75BFD03E0A4
:100DE00000210220FFF756FD0121C802FFF71AFD7E
:100DF000012003490860002010BD000000B4C404B5
:100E000000C0092010B5044634B1012C2DD0022CAD
:100E100054D0032C28D17AE0062922D2DFE801F051
:100E200003080D12171C02F00F004F4B18601AE058
:100E300002F00F004D4B186015E002F01F004C4B04
:100E4000186010E002F01F004A4B18600BE002F03F
:100E50001F00494B186006E002F00F00474B186076
:100E600001E0022010BD00BF7AE0062922D2DFE8AF
:100E700001F003080D12171C02F00F00404B186020
:100E80001AE002F00F003F4B186015E002F01F005F
:100E90003D4B186010E002F01F003C4B18600BE067
:100EA00002F01F003A4B186006E002F00F00394BC9
:100EB000186001E00220D5E700BF51E0062922D2E8
:100EC000DFE801F003080D12171C02F00F00324B8F
:100ED00018601AE002F00F00304B186015E002F0C5
:100EE0001F002F4B186010E002F01F002D4B186000
:100EF0000BE002F01F002C4B186006E002F00F0020
:100F00002A4B186001E00220ACE700BF28E0062968
:100F100022D2DFE801F003080D12171C02F00F00C7
:100F2000234B18601AE002F00F00224B186015E006
:100F300002F01F00204B186010E002F01F001F4B52
:100F400018600BE002F01F001D4B186006E002F075
:100F50000F001C4B186001E0022083E700BF00BFB8
:100F600000BF00207EE7000004C2092008C209205B
:100F70000CC2092010C2092014C2092018C209207D
:100F800024C2092028C209202CC2092030C209200D
:100F900034C2092038C2092044C2092048C20920AD
:100FA0004CC2092050C2092054C2092058C209204D
:100FB00064C2092068C209206CC2092070C20920DD
:100FC00074C2092078C20920024632B1012A15D024
:100FD000022A24D0032A44D132E02448006820F4B5
:100FE0008070234BC3F800022048006801F480732E
:100FF00040EA03001E4BC3F8000234E01D480068BD
:1010000020F480701A4BC3F820021A48006801F4DB
:10101000807340EA0300164BC3F8200223E0164811
:10102000006820F48070124BC3F840021248006838
:1010300001F4807340EA03000D4BC3F8400212E054
:101040000E48006820F48070094BC3F860020B481A
:10105000006801F4807340EA0300054BC3F86002A6
:1010600001E00220704700BF0020FBE700C209201A
:1010700000C0092020C2092040C2092060C2092006
:1010800010B502460B460021082B04D0102B04D0CB
:10109000202B06D103E0002105E0012103E002211D
:1010A00001E0022010BD00BF32B1012A13D0022A94
:1010B00020D0032A3CD12CE02048006820F0030017
:1010C0001F4CC4F800022046D0F8000240EA01009C
:1010D000C4F800022EE01B48006820F00300184C02
:1010E000C4F820022046D0F8200240EA0100C4F8EB
:1010F00020021FE01448006820F00300104CC4F8E0
:1011000040022046D0F8400240EA0100C4F8400204
:1011100010E00E48006820F00300094CC4F860029B
:101120002046D0F8600240EA0100C4F8600201E005
:101130000220B7E700BF0020B4E7000000C209208A
:1011400000C0092020C2092040C2092060C2092035
:10115000024632B1012A15D0022A24D0032A44D1F2
:1011600032E02448006820F08000234BC3F80002DE
:101170002048006801F0800340EA03001E4BC3F8DA
:10118000000234E01D48006820F080001A4BC3F8CC
:1011900020021A48006801F0800340EA0300164B61
:1011A000C3F8200223E01648006820F08000124BAC
:1011B000C3F840021248006801F0800340EA0300CF
:1011C0000D4BC3F8400212E00E48006820F080008A
:1011D000094BC3F860020B48006801F0800340EA45
:1011E0000300054BC3F8600201E00220704700BF16
:1011F0000020FBE700C2092000C0092020C209200E
:1012000040C2092060C20920024632B1012A15D02D
:10121000022A24D0032A44D132E02448006820F076
:101220000800234BC3F800022048006801F00803BF
:1012300040EA03001E4BC3F8000234E01D4800687A
:1012400020F008001A4BC3F820021A48006801F089
:10125000080340EA0300164BC3F8200223E01648B7
:10126000006820F00800124BC3F8400212480068E2
:1012700001F0080340EA03000D4BC3F8400212E0FE
:101280000E48006820F00800094BC3F860020B48C4
:10129000006801F0080340EA0300054BC3F8600250
:1012A00001E00220704700BF0020FBE700C20920D8
:1012B00000C0092020C2092040C2092060C20920C4
:1012C0002DE9F041F5E08148056015F0030F3DD0B0
:1012D000FFF7E0FB0646002416F4000F01D01020B3
:1012E00000E00020044316F0807F01D0082000E0D9
:1012F0000020044316F0007F01D0042000E000200D
:101300000443C6F3C060044316F0805F01D0402060
:1013100000E00020044316F0005F01D0202000E030
:101320000020044316F4801F02D04FF4805000E0E8
:101330000020044314B925F0020506E06448006A61
:1013400018B16348016A2046884700BF15F0300F86
:1013500032D0FFF7A9FB0646002416F0806F02D0BA
:101360004FF4007000E00020044316F0006F02D03C
:101370004FF4807000E00020044316F0805F01D03D
:10138000802000E00020044316F0005F02D04FF4FC
:10139000806000E00020044316F0804F02D04FF43C
:1013A000006000E0002004434948006A18B1484842
:1013B000016A2046884700BF15F0080F5ED0012063
:1013C000FFF710FB002859D0FFF756FB0746002F08
:1013D00054DDFF1EFFF75EFB3E4908424ED13E48FA
:1013E000007800EB40003D4901EB80203C49096852
:1013F00000EB4104FFF728FB0646394800683844F3
:101400003749086008460068B0F5C06F09D300206E
:1014100008602F48006A80B32D48016A042088477D
:101420002BE004E036F8020B24F8020BBF1E002F5D
:10143000F8DCFFF72FFB10F0804F1CD024488069A8
:1014400058B12549097801EB4101244B03EB812078
:101450001F498A692249096890470020204908608D
:101460001D480078401C1C49087008460078022876
:1014700001DB00200870FFF729FC00BF15F0400FCA
:1014800005D01348C06910B11149C869804715F4E7
:10149000805F05D00E48806A10B10D49886A804788
:1014A00015F4005F05D00A48406A10B10849486A3F
:1014B00080470648083800680449091F0968084041
:1014C00005007FF400AFBDE8F0810000E84F082080
:1014D0007C0300100000901B14000010A8030010F3
:1014E0001000001001460020087070472DE9F05FE1
:1014F0008046894616469A46DDE90A5B002704E0E5
:10150000002029490968C8557F1C1F2FF8D335B121
:10151000032D08D0122D08D0252D08D101E000247C
:1015200008E0082406E0122404E0242402E009FB79
:1015300006F400BF00BF1D491B48006803F080FC93
:101540001B48016818480068001D03F079FC21461B
:1015500015480068083003F073FCBAF1010F01D19F
:10156000002000E050461049096808730E480068E2
:1015700080F80EB00C480068C573032D01D0122D01
:1015800003D109490968CC7405E041460648006862
:10159000113003F03FFC314603480068163003F079
:1015A00031FCBDE8F09F00008C0000105553424311
:1015B000A400001070B506460C46304600F004F852
:1015C000054605B1EC6170BD01460020062915D223
:1015D000DFE801F00305080B0E110A480FE0094887
:1015E00020300CE00748403009E00648603006E053
:1015F0000448803003E00348A03000E000BF00BF93
:10160000704700000080092010B50121C803FFF7D2
:1016100009F910BD2DE9F04107460D46164638463A
:10162000FFF7D2FF04463CB11EB12068284320607A
:1016300002E02068A8432060BDE8F08170B506464E
:101640000C463046FFF7C0FF054605B1AC6170BDE2
:1016500010B500F069FC00F0A7FC10BD10B500F05B
:1016600021FC00F06DFC00F0B5FC00F055FC00F032
:1016700057FC4FF4E13000F037F8002204A1054890
:1016800004F0DEFE002204A1044804F0D9FE10BDDF
:10169000313A0000989E0010323A0000C8A00010B5
:1016A0000EB502208DF8000000208DF80500012005
:1016B0008DF8030008208DF8010000208DF804004B
:1016C0008DF8020002208DF806008DF807001F201B
:1016D0008DF80A008DF809008DF808008DF80B00D0
:1016E000684602F087FD0EBD10B5044601220221B6
:1016F000002002F005FA01220321002002F000FA86
:101700000A48046003F07CF80849002003F032F92D
:10171000074803F0D1F80649002003F077F80121CB
:10172000002003F035FA002010BD00005403001023
:101730005C03001010B5334C3348046004F580702E
:101740003249086004F588703149086004F59070EA
:101750003049086004F598702F49086004F5A070BE
:101760002E49086004F5A8702D49086004F5E8705A
:101770002C49086004F580502B4908600846006831
:1017800012302A4908600846006809302849086074
:101790002048006800F0D8F81F48006800F0D4F82E
:1017A0001E48006800F0D0F81848006800F004FBFC
:1017B0001748006800F000FB1348006800F0A6F925
:1017C000322000F0A5F800201A49486008628862BB
:1017D00001208860184848630846406820F0C0002F
:1017E00040F0800048606013086507480068886121
:1017F0000846C068C96808430E49C8600F480861B8
:1018000010BD0000A00F0020840000107C0000101C
:1018100080000010700000107400001078000010AC
:101820008C00001090000010980000109C00001028
:101830009400001000C00820DF2E7827520000809E
:101840002DE9F84706460F4690469946DDE9094AD4
:101850004B46424639463046009400F023F90823AF
:101860000F48002102680F48006800F02DFA054675
:101870009DB944B1234652464FF48011094800688F
:1018800000F022FA054645B900231A464FF400211C
:101890000448006800F018FA05462846BDE8F887B5
:1018A0008C000010700000102DE9F84706460F4626
:1018B00090469946DDE9094A4B464246394630464C
:1018C000009400F0EFF808230F48002102680F4849
:1018D000006800F0F9F905469DB944B12346524627
:1018E0004FF400210948006800F0EEF9054645B9BB
:1018F00000231A464FF480110448006800F0E4F910
:1019000005462846BDE8F8878C00001070000010DE
:1019100018B504460020009006E04FF47A7000F0FD
:1019200007F80098401C00900098A042F5D318BD1D
:1019300008B50021009102E00099491C0091810046
:10194000009A9142F8D808BD002101604160816091
:10195000C16070473CB500BF4C4800680028FBD010
:101960006420FFF7D5FF4A48006810F0010F0CD043
:1019700010204849486500BF4648406D10F0100FE0
:10198000FAD14FF48010434948654148006810F08F
:10199000020F0CD010203F49886500BF3D48806D84
:1019A00010F0100FFAD14FF480103A498865C82022
:1019B000FFF7AEFF4FF490103749096808603748C9
:1019C0000068122100234FF48072CDE90010062137
:1019D0008020FFF735FF04460CB120463CBD2F4860
:1019E0000068C07900042C49096808600020009054
:1019F0000346012205210190FFF756FF04460CB172
:101A00002046EBE70220FFF783FF234800680068C9
:101A100040F0010020490968086021480068092158
:101A200000234FF40072CDE9001006218020FFF75B
:101A300007FF04460CB12046D0E719480068801C17
:101A400002F0F0F805461648006800234FF40072D3
:101A50000621CDE900508020FFF7F2FE04460CB1CC
:101A60002046BBE700F0BEF804460CB12046B5E7BF
:101A7000002000900346012209210190FFF714FF86
:101A800004466420FFF744FF2046A7E758000010F3
:101A90006000001000C008207000001098000010C6
:101AA0009C0000102DE9F04305460E461746984667
:101AB000DDF81C90002404E0002010490968085556
:101AC000641C4C45F8DB0D48006805700B48006845
:101AD0004670394609480068801C03F0A9F9414660
:101AE00006480068001D03F0A3F949460348006852
:101AF000801D03F09DF9BDE8F08300008C0000100C
:101B000001480078704700005C000010002107E0E9
:101B1000002240F82120A0F88020C0F88420491C31
:101B20002029F5D37047000010B52748006840F021
:101B300000402649C1F8C4004FF01900244908604C
:101B400000BF2448006800F019001928F9D10120CD
:101B50002149086002464FF01F014FF0000001F0DC
:101B6000CFFF03220E21002001F0CAFF01220D2128
:101B7000002001F0C5FF01220C21002001F0C0FF70
:101B800001221F21104601F0BBFFFFF7D3FD1820F3
:101B90000121814042094FF0E02303EB8202C2F8A9
:101BA000001100BF0021002807DACA06140E0B4AF4
:101BB00000F00F031B1FD45403E0CA06130E084A9B
:101BC000135400BF10BD0000C4C00F4000C00F4040
:101BD000F4CF0820F8CF082010C1082018ED00E04D
:101BE00000E400E010B53448026800245078022870
:101BF00002D06FF00A0010BD107802444BE050781C
:101C0000042802D0052842D10FE0507908280BD1D2
:101C10009079062808D1D079502805D101240020D8
:101C2000264908701078024434E0D07800F00300B0
:101C3000022829D1907810F0800F12D0101D01F0E9
:101C4000F1FF917801F07F01012343EAC11141F4D2
:101C5000805141EA00401A4909680860107802443E
:101C600014E0101D01F0DEFF917801F07F010123E7
:101C700043EAC11141F4006141EA00401149096899
:101C800008601078024401E01078024402E0107805
:101C9000024400BF00BF08480068801C01F0C2FF7A
:101CA0000549096808449042A9D10CB10020A2E777
:101CB0006FF00B009FE700009C0000105C0000101C
:101CC00074000010780000101FB581B0044635483C
:101CD0000068844209D1029818B94FF00070009052
:101CE00005E04FF04070009001E000200090029865
:101CF00040F480200099084340F070402A49096868
:101D00000860002029490968086027480068426087
:101D1000002026490968486024480068224909686B
:101D200088600020214909688860581E10441E49B7
:101D30000968C86000201D490968C860A06800F0F3
:101D40000200194909680843A060184800686060EB
:101D50000020E0601348006884420CD114480462FB
:101D6000806840F00200124988600846406840F0F0
:101D7000100048600BE00E488462806840F0040068
:101D80000B4988600846406840F02000486000F039
:101D900019F80848007810B9002005B010BD4FF0C0
:101DA000FF30FAE7700000107C0000108000001087
:101DB00000C00820680000100021016041608160BF
:101DC000C160704700BF044800680028FBD00020B5
:101DD0000149086070470000640000102DE9F041DF
:101DE00007460D461646384600F010F80446012E08
:101DF00007D1012D02D04020206004E04420206063
:101E000001E04020A061BDE8F0810000014621B161
:101E1000012904D0022906D103E0054805E0054860
:101E200003E0054801E0002000BF00BF704700004C
:101E300000C0014000C0054000000A402DE9F0410B
:101E400005460F462846FFF7E1FF064625B1012D5E
:101E500004D0022D08D104E0802407E04FF40024D0
:101E600004E04FF0806401E0BDE8F08100BF012193
:101E70002046FEF7D7FC3946304600F004F86420CF
:101E8000B06100BFF0E770B504460D460120FEF7D3
:101E9000E1FCB0FBF5F6700820612069301A606142
:101EA00070BD000010B502221E21104601F028FE70
:101EB00002221F21104601F023FE05490220FFF7F0
:101EC000BDFF012200210220FFF788FF10BD0000A6
:101ED000400D030010B5FEF7F9FE10BD10B5FEF77A
:101EE000D9FD10BD10B50120FEF77CFD08B1002022
:101EF00010BD0120FCE77CB505460C460195009419
:101F00006846FEF705FF7CBD10B500F07DF810BDFA
:101F100010B5FEF799FD10BD10B5FFF7C1FB10BD60
:101F200010B501F0BFFC10BD10B5FFF7DBFF20B905
:101F300000221146014804F045FA10BD209D001012
:101F40000EB500F04BF810481049086010481149D0
:101F500008606FF07F401049086006F051F80F48A4
:101F60000F4900220B4BCDE9002102900A4A074994
:101F70000C4806F04FFD0B4806F094FD094806F0AA
:101F8000A9FD00F0A7F80EBDC0A80064380300103A
:101F9000C0A80001400300103C030010956200003F
:101FA0007D630000209D001010B5084800680849B6
:101FB0000968401A41F28831884205D30348006815
:101FC0000349086004F0B6F810BD00004403001097
:101FD0003403001010B501F059FE10BD10B50120FA
:101FE00001F085FF012001F06EFF012001F057FF95
:101FF00010BD10B503F0E7FC10BD10B5002000F0D7
:1020000001F810BD7047000000B58FB02DA103C9C5
:10201000CDE9010101220021104601F071FD0122EC
:102020001146104601F06CFD01220421104601F01A
:1020300067FD01220821104601F062FD01220921FD
:10204000104601F05DFD01220A21104601F058FD05
:1020500001220E21104601F053FD01220F211046EE
:1020600001F04EFD01221021104601F049FD012230
:102070001121104601F044FD0020039001A80590B5
:1020800001208DF810004FF4C060ADF818000F4823
:1020900007900F48089000200A900D900C9009E0DE
:1020A0004FF480100E9002E00E98401E0E900E9895
:1020B0000028F9D103A8FEF701FD0028F0D00FB0E9
:1020C00000BD00001E306CA2455E0000093A000011
:1020D0002B3A000010B507F085FC0B49086007F0AB
:1020E00081FC0A4908600846006860B14FF49662B6
:1020F00007490648006807F011FB0022054903481C
:10210000006807F0A9FC10BD640300106003001014
:102110006C4F0300AD9B000070B594B004460125E0
:10212000029413A82A4603AB02A90090432001F0B1
:102130000DFF064616B9002014B070BD4FF0FF30F9
:10214000FAE730B593B001240120019002A822469D
:1021500003AB01A90090022001F0F8FE054615B975
:10216000002013B030BD4FF0FF30FAE770B594B0E7
:1021700004460125029413A82A4603AB02A9009045
:10218000132001F0E3FE064616B9002014B070BD1E
:102190004FF0FF30FAE7F0B593B0054601AC25707B
:1021A000641C280A2070641C280C2070641C280EF3
:1021B0002070641C042612A8324602AB01A90090CC
:1021C000442001F0C3FE074617B9002013B0F0BD4C
:1021D0004FF0FF30FAE70000F0B58AB005464FF047
:1021E000FF372026062000900195012002900390E1
:1021F00005A8049026E0042000F0D8F8074617B19F
:1022000038460AB0F0BD00F0FBF988B9684600F026
:102210001DF9044614B14FF0FF3709E00B4905984A
:10222000084201D04816ECE7042000F0BFF8E8E7C8
:102230000020099002E00998401C09900998202884
:10224000F9D3761E002ED6D13846DAE70880F8FD9D
:102250002DE9F0418AB005464FF0FF38204840EAAA
:1022600085774FF4005629200090019701200290B5
:10227000039005A80490002001F024F82BE000F062
:10228000BFF95FEA000818D1684600F0DFF804469D
:1022900014F0040F02D06FF0020812E0059810F05D
:1022A000004F02D16FF002080BE00598C0F3807078
:1022B0000C4908704FF000080FE040460AB0BDE836
:1022C000F0810020099002E00998401C09900998CB
:1022D0002028F9D3761E002ED1D100BF4046EDE76D
:1022E0000080FF004000001018B54FF0FF34FF20C1
:1022F0002549087000F04CF808B1204618BD0020B0
:1023000000F0E0FF0020009002E00098401C0090E8
:102310000098B0F5405FF8D300F0B4F90446A01C73
:1023200001D12046EAE774B90120FFF791FF0400CC
:1023300009D10220144908701448007808B103201C
:1023400008700020DAE73CB10020FFF781FF0400AD
:1023500002D10D490870D1E7A4B1012000F0B2FF0D
:102360000020009002E00098401C00900098B0F51A
:10237000405FF8D300F0C6F920B901200249087087
:102380000020BBE70020B9E741000010400000102A
:1023900000B585B000200090019002900390049059
:1023A000684600F06BFE002005B000BDF8B504469D
:1023B0004FF0FF373D0C20E0684600F0BFFB00B156
:1023C0001DE0009810F4807F02D16FF004070EE04A
:1023D0000098C0F34320A04207D00098C0F34320E8
:1023E000072804D06FF00300F8BD0020FCE76D1E45
:1023F000002600E0761C202EFCD3002DDCD100BF8F
:102400003846F1E71049486B10F0010F02D0012166
:102410000D4A916310F0040F02D004210A4A91631F
:1024200010F0400F02D04021074A916310F0800F56
:1024300002D08021044A916310F4006F03D04FF45E
:102440000061014A9163704700000C402DE9F041A2
:102450000446D4F80080A6682769204600F00EFEE6
:1024600007B936B13A463146404600F0B1FB054661
:1024700001E06FF001052846BDE8F0812DE9F04349
:102480008AB0044688464FF0FF39B8F1010F01D9F0
:10249000122700E011272025009720480078032804
:1024A00001D1019401E060020190012002900390AB
:1024B00005A804902DE00420FFF778FF20B16FF00D
:1024C00003000AB0BDE8F0836846FFF7BFFF064689
:1024D00016B14FF0FF3912E011490598084201D0BA
:1024E0004816EEE70520FFF761FF30B10420FFF743
:1024F0005DFF10B16FF00300E3E70020E1E700208B
:10250000099002E00998401C099009982028F9D305
:102510006D1E002DCFD14846D3E7000041000010CA
:102520000880F8FDF0B58AB04FF0FF3731480078E9
:1025300038B130480078022803D02E4800780328AC
:1025400002D12D48066801E04FF480362024072090
:102550000090019601200290039005A8049044E0A9
:102560000320FFF723FF98B10420FFF71FFF78B186
:102570000520FFF71BFF58B10720FFF717FF38B101
:102580000820FFF713FF18B16FF003000AB0F0BD89
:102590006846FFF75BFF054615B14FF0FF371AE0BD
:1025A00016490598084201D04816EFE70320FFF7C7
:1025B000FDFE70B10420FFF7F9FE50B10720FFF7D0
:1025C000F5FE30B10820FFF7F1FE10B16FF0030007
:1025D000DCE70020DAE70020099002E00998401CBF
:1025E000099009982028F9D3641E002CB8D13846E8
:1025F000CCE70000410000103C0000100880F8FD0E
:10260000F0B58AB04FF0FF371C48007838B11B484E
:102610000078022803D019480078032802D118480E
:10262000056800E000251424372000900195012062
:102630000290039005A8049019E06846FFF706FF92
:10264000064616B14FF0FF3707E0059810F0200F4F
:1026500001D000270DE06FF004070020099002E090
:102660000998401C099009982028F9D3641E002C71
:10267000E3D100BF38460AB0F0BD000041000010B1
:102680003C0000102DE9F0438AB04FF0FF390126DD
:10269000AA2747EA0628142508200090CDF80480D0
:1026A00001200290039005A8049026E06846FFF7F9
:1026B000CDFE044614F0040F02D06FF0020912E0C0
:1026C0000598C0B2B84204D06FF001000AB0BDE86E
:1026D000F0830598C0F30320B04202D06FF00100F0
:1026E000F4E70020F2E70020099002E00998401C7E
:1026F000099009982028F9D36D1E002DD6D148469F
:10270000E4E7000070B58AB04FF0FF364FF4007573
:10271000012000901548019001200290039005A827
:1027200004901CE06846FFF791FE044614F0040F85
:1027300002D06FF0020608E0059810F0004F02D1B9
:102740006FF0020601E000260BE00020099002E095
:102750000998401C099009982028F9D36D1E002D76
:10276000E0D100BF30460AB070BD00000080FF001D
:1027700070B58AB04FF0FF360420FFF717FE10B98E
:1027800000200AB070BD20240C2000900020019091
:1027900001200290039005A804902FE00520FFF788
:1027A00005FE30B10620FFF701FE10B16FF0030007
:1027B000E7E76846FFF74AFE054615B14FF0FF36DA
:1027C00012E010490598084201D04816D9E70720C1
:1027D000FFF7ECFD30B10420FFF7E8FD10B16FF01A
:1027E0000300CEE70020CCE70020099002E0099822
:1027F000401C099009982028F9D3641E002CCDD1E3
:102800003046BEE70880F8FD2DE9F0438AB0044663
:1028100088464FF0FF39B8F1010F01D9192700E0C0
:1028200018272025009720480078032801D101941B
:1028300001E06002019001200290039005A804903D
:102840002DE00420FFF7B2FD20B16FF003000AB0C5
:10285000BDE8F0836846FFF7F9FD064616B14FF074
:10286000FF3912E011490598084201D04816EEE7F9
:102870000620FFF79BFD30B10420FFF797FD10B154
:102880006FF00300E3E70020E1E70020099002E099
:102890000998401C099009982028F9D36D1E002D35
:1028A000CFD14846D3E70000410000100880F8FD72
:1028B00000B50E48426B12F4807F0CD080150B4996
:1028C000886300200A4908600A49086000F038FD62
:1028D00000F044FB00BD12F4806F04D04FF4806020
:1028E00002498863F6E700BFF4E7000000000C40EF
:1028F00020000010240000101349486B10F0020F54
:1029000002D00221104A916310F0080F02D0082172
:102910000D4A916310F0100F02D010210A4A916302
:1029200010F0200F02D02021074A916310F4007F9D
:1029300003D04FF40071044A91630021034A1160EF
:10294000034908607047000000000C4020000010A0
:102950002400001010B52648446B14F4804F21D099
:1029600014F4804F0FD02348006800B910BD2149EE
:102970000968214A1268881800F04EFD1E48006858
:1029800020301D4908601C480068B0F5007F2DD13B
:102990001848006800F500701649086000201649C4
:1029A000086023E014F4004F20D014F4004F0FD03F
:1029B0001248006800B9D9E710490968104A12683E
:1029C000881800F037FB0E48006820300C4908607A
:1029D0000B480068B0F5007F08D10848006800F592
:1029E00000700649086000200549086000BFBDE787
:1029F00000000C402C0000103400001030000010CB
:102A00003800001070B58AB004464FF400760220FA
:102A1000009000200190022002900120039005A860
:102A2000049038E06846FFF711FD054615F0040FE5
:102A300027D11CB30598000E20700598C0F30F2015
:102A40006080059820710698A0600798000E20739A
:102A5000DDE90710000E61F31F2020610898C0F324
:102A6000045020750898C0F30B20E0820898C0F34A
:102A700046002076089800F00100607600200AB039
:102A800070BD0020099002E00998401C0990099847
:102A90002028F9D3761E002EC4D1F01EEFE70000E7
:102AA000F0B58AB004462048007838B11E48007856
:102AB000022803D01C480078032802D11B4806686E
:102AC00001E04FF480362025092000900196022075
:102AD00002900120039005A8049021E00320FFF755
:102AE00065FC18B16FF003000AB0F0BD6846FFF74F
:102AF000ADFC074657B93CB1059820600698606068
:102B00000798A0600898E0600020EDE70020099099
:102B100002E00998401C099009982028F9D36D1EFD
:102B2000002DDBD1681EDFE7410000103C000010E3
:102B300001480068704700003C0000102DE9F0419A
:102B40008AB004464FF0FF381CB900200AB0BDE837
:102B5000F0811A48007838B118480078022803D06C
:102B600016480078032802D11548076801E04FF4A1
:102B7000803720250D2000900197012002900390BE
:102B800005A8049015E06846FFF760FC064616B1FC
:102B90004FF0FF3803E0059820600020D6E76D1E57
:102BA0000020099002E00998401C0990099810281B
:102BB000F9D3002DE7D14046C8E7000041000010DE
:102BC0003C000010014890F90000704741000010DF
:102BD000F0B503460C46002100260CB90020F0BDDC
:102BE00039E03248416B11F0040F0ED041F004007F
:102BF0002E4FB8630020F860401EB860002600E049
:102C0000761C102EFCD30846E9E711F0010F1AD00C
:102C100041F00100254FB8633846C06800F03F0519
:102C2000012D03D0292D01D00C2D0AD100201F4FDA
:102C3000F860401EB860002600E0761C102EFCD321
:102C40000AE00846CBE711F0400F04D041F0400005
:102C5000164FB86300E0C4E700BF1448006900F0F5
:102C60003F0098420BD0012B09D0292B07D0022B13
:102C700005D0092B03D04FF0FF310846AFE79AB1DA
:102C8000012C03D10948406910600DE0022C0BD1E2
:102C90000648406910600548806950600348C06973
:102CA00090600248006AD060002098E700000C4065
:102CB00001480068704700002000001001480068CB
:102CC000704700002400001010B50F48446B40F21C
:102CD0003A20044202D0FFF70FFE10BD14F4A06F9B
:102CE00002D0FFF7E5FDF8E70848044202D0FFF7FD
:102CF00031FEF2E740F6C500044202D0FFF782FB46
:102D0000EBE700BFE9E7000000000C4000C40F0043
:102D100038B50446FF20884908708848006820F0CC
:102D20001F008749C1F888000846D0F88C0020F0C1
:102D30001F00C1F88C000846D0F8940020F01F0056
:102D4000C1F894000846D0F8980020F01F00C1F8A0
:102D500098000846D0F89C0020F01F00C1F89C00A5
:102D60000846D0F8AC0020F01F00C1F8AC000846BF
:102D7000D0F8B00000F01F00C1F8B0007148006A40
:102D800041F6EC0140EA01006E4908624FF48050C0
:102D9000C8634FF40060C8634FF08000C8634FF011
:102DA0004000C8634FF0200088634FF00800C863FC
:102DB0004FF00400C8634FF00000009002E000985C
:102DC000401C00900098B0F5801FF8D35E48006862
:102DD00040F080505D49C1F8C4005D48406810F47F
:102DE000807F0ED05A48406820F48070584948606F
:102DF0000020009002E00098401C009000981028ED
:102E0000F9D35348006810F0020F0AD0002050494F
:102E10000860009002E00098401C00900098102884
:102E2000F9D300204A49C86302221146012000F06C
:102E300067FE02220321012000F062FE022205212A
:102E4000012000F05DFE02220621012000F058FE64
:102E500002220721012000F053FE02220B21012053
:102E600000F04EFE02220C21012000F049FE3CB988
:102E70003848006820F008003449C1F8A00106E095
:102E80003448006840F008003049C1F8A0016FF0F4
:102E900060402F4948624FF00000C860009002E097
:102EA0000098401C009000981028F9D30020284971
:102EB000C862009002E00098401C00900098102822
:102EC000F9D340F2FF702249886302200860002095
:102ED000009002E00098401C009000981028F9D360
:102EE0000020009002E00098401C00900098B0F58F
:102EF000002FF8D3184800F0FDF91548006840F09D
:102F00000100134908600020009002E00098401C76
:102F1000009000981028F9D31D200121814042091A
:102F20004FF0E02303EB8202C2F8001100BFFFF76D
:102F3000DBF9002038BD00004100001088C00240CD
:102F400000C0024000800920C4C00F4000C00F40F4
:102F500000000C40A0C10F40801A06000348C06B5F
:102F600048F22A7188430149C863704700000C4049
:102F70000348C06B48F22A7108430149C86370478F
:102F800000000C40F8B505460E46144600276002C6
:102F9000B0F5803F01D3B81EF8BD1F48056040F270
:102FA000FF701E4988630020C862009002E000980C
:102FB000401C009000981028F9D30420FFF7F6F980
:102FC00010B16FF00300E7E7FFF7D2FF1448134991
:102FD000486260028862012012490860002012499C
:102FE0000860124908601249087047F093070B48BF
:102FF000C7620020009002E00098401C00900098FA
:103000001028F9D321463046FFF738FA10B14FF0B7
:10301000FF30C1E70020BFE73000001000000C4087
:10302000404B4C002000001024000010380000101D
:103030002800001030B504460E48007810B9002270
:10304000072301E008220F230A48007808B901206D
:1030500000E00020074D2870114606E0064850F8B1
:1030600021002060241D481CC1B29942F6DD0020D9
:1030700030BD00002800001080000C40F8B501466B
:1030800000200C684D688A68CE6812E00027DFF8DF
:103090009CC0CCF80C70009702E0009F7F1C00974A
:1030A000009F102FF9D343F40067DFF880C0CCF8FD
:1030B00038701E4F7B6B13F4006FE7D104F03F07AD
:1030C000384312B920F0C00008E0012A02D140F0D4
:1030D000400003E0022A01D140F0C000012E02D1DD
:1030E00020F4807001E040F4807040F4806040F291
:1030F000FF77DFF838C0CCF838706746BD60F860FD
:103100000027009702E0009F7F1C0097009F102F70
:10311000F9D300BF054F7F6B002FFBD000BF034FDB
:103120007F6B17F4006FFAD1F8BD000000000C406F
:10313000F0B58AB005464FF0FF37202610200090EA
:10314000019501200290039005A8049023E004203B
:10315000FFF72CF918B16FF003000AB0F0BD684614
:10316000FFF774F9044614B14FF0FF3709E00C493A
:103170000598084201D04816EFE70420FFF716F93A
:10318000EBE70020099002E00998401C099009989B
:103190002028F9D3761E002ED9D13846DDE700006D
:1031A0000880F8FD38B50446002534B91648406853
:1031B00020F400601449486008E0012C06D1124850
:1031C000406840F40060104948600A2500200090E3
:1031D00002E00098401C009000981028F9D30B489A
:1031E000007838B109480078022803D007480078F1
:1031F000032806D12846FEF7EFFF10B14FF0FF304D
:1032000038BD0020FCE7000000000C404100001029
:10321000F0B587B04FF0FF372848007838B127481D
:103220000078022803D025480078032801D1002621
:1032300001E04FF480362024032000900196012005
:103240000290039005A8049033E06846FFF7FEF86B
:10325000054615F0040F02D06FF002071FE0059835
:1032600010F4807F02D16FF0040718E00598C0F3D6
:103270004320022802D06FF0030710E04FF6FF71E1
:10328000059801EA10400E490860084600680004ED
:103290000860002000F016F8002007B0F0BD002004
:1032A000069002E00698401C069006982028F9D364
:1032B000641E002CC9D13846EFE700004100001021
:1032C0003C0000100021012806D1094A126842F092
:1032D0004002074B1A6005E0054A126802F08302BB
:1032E000034B1A60002100E0491C1029FCD37047F1
:1032F00000000C40F8B5044600250120FDF7AAFAAD
:103300000646022000FB0460401E6100B0FBF1F5A0
:1033100005B16D1E0948406820F0FF0040F4807040
:103320002843064948600020009002E00098401CB5
:10333000009000981028F9D3F8BD000000000C4060
:103340000348C06B44F21A7188430149C86370474F
:1033500000000C400348C06B44F21A710843014955
:10336000C863704700000C40F8B505460E46144689
:1033700000276002B0F5803F01D3B81EF8BD1F489A
:10338000056040F2FF701E4988630020C86200900B
:1033900002E00098401C009000981028F9D3042007
:1033A000FFF704F810B16FF00300E7E71548144980
:1033B00048626002886201201349086000201349B6
:1033C00008601349087013490860FFF7C3FF2146DE
:1033D0003046FFF719FA10B14FF0FF30CEE747F053
:1033E00091070748C7620020009002E00098401C47
:1033F000009000981028F9D30020BFE72C0000109F
:1034000000000C40002D31012000001024000010AD
:10341000280000103400001030B504460E48007833
:1034200010B90022072301E008220F230A48007880
:1034300008B9012000E00020074D2870114606E081
:103440000648256840F82150241D481CC1B2994205
:10345000F6DD002030BD00002800001080000C4088
:1034600070B505460E461446224631462846FFF7FB
:1034700089FD90B900BFFFF71BFC0028FBD1012C90
:1034800004D9FFF775F908B1012070BDFFF716FCEC
:1034900008B10120F9E70020F7E70120F5E770B552
:1034A00005460E461446224631462846FFF75CFF85
:1034B00090B900BFFFF7FCFB0028FBD1012C04D919
:1034C000FFF756F908B1012070BDFFF7F7FB08B10F
:1034D0000120F9E70020F7E70120F5E710B500200B
:1034E000FFF716FC08B1204610BD04F0B3FE01281A
:1034F00003D124F00100044602E044F00200044637
:1035000000BFF1E72DE9FC4781460D461646B0465F
:10351000002703E0002008F8010B7F1C1D4800680D
:103520006843B842F6D80A20282180232A46CDE9EC
:103530000010184801684846FDF7D8FF1F231648B9
:103540004FF40021026815480068FEF7BDFB0446F1
:10355000ECB91048006800FB05F332464FF48011C7
:103560000F480068FEF7B0FB044684B90D230A48F3
:103570004FF4801102680A480068FEF7A5FB044674
:103580002CB905480068007B08B16FF0090420469B
:10359000BDE8FC87A80000108C0000107800001027
:1035A000740000102DE9FC4106460D4617460A201E
:1035B0002A2100232A46CDE9001018480168304628
:1035C000FDF794FF1F2316484FF4002102681548A9
:1035D0000068FEF779FB0446ECB91048006800FB70
:1035E00005F33A464FF400210E480068FEF76CFBE5
:1035F000044684B90D230A484FF4801102680A4832
:103600000068FEF761FB04462CB905480068007BA2
:1036100008B16FF009042046BDE8FC81A800001045
:103620008C00001078000010740000101CB50748D2
:103630000068012100231A46CDE90010FE21A120D7
:10364000FEF7FEF8044620461CBD00008C0000106A
:103650001CB50620032180230022CDE9001011466D
:103660001046FDF743FF1F2313484FF40021026863
:1036700012480068FEF728FB0446DCB912230E4806
:103680004FF4801102680E480068FEF71DFB0446E7
:1036900084B90D2308484FF4801102680848006877
:1036A000FEF712FB04462CB903480068007B08B102
:1036B0006FF0090420461CBD8C000010780000103B
:1036C000740000102DE9F04105460E461746FFF73D
:1036D000ADFF4FF050080AE000F0B6F8044604B918
:1036E00008E0FFF7B5FFA8F1010000F0FF08B8F10E
:1036F000000FF1D100BF14B12046BDE8F08129468A
:10370000304600F059F804460449286808603846F5
:1037100000F006F804462046EFE70000A80000107D
:103720007CB504460620122180230022CDE900103A
:1037300011461046FDF7DAFE1F231C484FF4002106
:1037400002681B480068FEF7BFFA05465DBB2423EC
:1037500016484FF48011026816480068FEF7B4FA64
:10376000054605BB74B100260AE0104800680078E1
:1037700004F8010B0D480068401C0C490860761CD9
:10378000242EF2D30D2309484FF480110268094812
:103790000068FEF799FA05462DB904480068007BD9
:1037A00008B16FF0090528467CBD00008C000010B0
:1037B00078000010740000107CB505460E460A2003
:1037C000252180230022CDE9001011461046FDF787
:1037D0008DFE1F2319484FF4002102681848006825
:1037E000FEF772FA04463CBB0823144859040268E9
:1037F00014480068FEF768FA0446ECB925B10F4892
:10380000006800F0FFF928602EB10C480068001D28
:1038100000F0F8F930600D2308484FF48011026879
:1038200008480068FEF750FA04462CB903480068BF
:10383000007B08B16FF0090420467CBD8C000010AD
:1038400078000010740000101CB506200021012330
:103850000A46CDE900100846FDF748FE1F230E4832
:103860004FF4002102680D480068FEF72DFA044667
:1038700084B90D2308484FF4801102680848006895
:10388000FEF722FA04462CB903480068007B08B111
:103890006FF0090420461CBD8C0000107800001059
:1038A0007400001010B5FDF7AFFE002212210420B5
:1038B00000F026F900221121042000F021F9002255
:1038C0001021042000F01CF900221321042000F034
:1038D00017F900221421042000F012F94FF40031EE
:1038E0000420FDF7ABFE4FF480310420FDF7A6FE67
:1038F0004FF400210420FDF7A1FE4FF480110420B5
:10390000FDF79CFE012291040420FDF783FE0122B5
:1039100051040420FDF77EFE012211040420FDF76E
:1039200079FE0122D1040420FDF774FE0122110565
:103930000420FDF76FFE0120064908700649087053
:10394000064908700649087081040420FDF732FE1C
:1039500010BD0000CA020010CB020010CC02001003
:10396000CD0200102DE9F04798B004460D461646EA
:103970001F46DDF880904FF01408029403950496DA
:103980000597CDF8189017A8424607AB02A90090FA
:10399000412000F0DBFA8246BAF1000F03D100208B
:1039A00018B0BDE8F0874FF0FF30F9E72DE9F84F88
:1039B00006460D4617469846DDE90A9AA9B2012245
:1039C000002005F0A2F804466660658125814FEA73
:1039D0000A6009F0FF0140EA014008F0FF0140EAF7
:1039E0000120F9B2084300904FF496636A462146DD
:1039F0000448006806F034F8204605F018FABDE8DF
:103A0000F88F00006403001010B5044600F00DF8B4
:103A1000002801DA002010BD206800F021F80028FD
:103A200001DA0020F7E70120F5E770B500254FF433
:103A300000410020FDF7A8F94FF480140BE00020AE
:103A4000FDF7DAF8054615F4084F00D105E00CB98A
:103A5000002070BD641E002CF1DA00BF0120F8E7E1
:103A60002DE9F04104464FF47A770220FDF7C4F8BF
:103A700080460320FDF7C0F80646052C28D2DFE873
:103A800004F0030F151B21004FF480510020FDF7B7
:103A90007BF94FF4801500E06D1E002DFCDA1BE071
:103AA0004DF6FF710020FDF76FF915E04FF6FF713D
:103AB0000020FDF769F90FE04FF404510020FDF7F5
:103AC00063F909E04FF6FF610020FDF75DF903E0BF
:103AD0004FF0FF30BDE8F08100BF00F007F800288C
:103AE00002DA4FF0FF30F5E70020F3E710B50120D0
:103AF000FDF7BAF80120FDF7D1F8002010BD000055
:103B00002DE9F04106460F46154600243946304659
:103B100000F01AF88046B8F1050F02D10948BDE857
:103B2000F0813946304600F061F80446206820F004
:103B30000700206005F0070120680843206000208E
:103B4000EDE700000100001002460520062A4AD2D7
:103B5000DFE802F0032F393A3B3D062907DD0A2949
:103B600001DB0B2903DD0E2903DB162901DC002014
:103B70001EE00C2905D00D2903D0172903DB1A29D3
:103B800001DC012014E01D2903D01E2901D01F29CA
:103B900001D102200CE01B2901D01C2901D10320F6
:103BA00006E0072903D0082901D0092900D1042003
:103BB0001AE01D2901DC002004E01E2901D01F2984
:103BC00000D1012010E000BF00BF00200CE001295F
:103BD00001DD042901D1002004E0022901D00329DC
:103BE00000D1032000E000BF00BF704710B50246BF
:103BF000002001EB4213024C04EB830010BD0000D7
:103C000000C0024008B50146C8788DF800008878E9
:103C10008DF8010048788DF8020008788DF80300CF
:103C2000009808BD08B5014608788DF8000048786E
:103C30008DF80100BDF8000008BD2DE9F04798B0EF
:103C400004460F4690469946DDF880A0012C01DB22
:103C5000082C03DD002018B0BDE8F087142602947C
:103C60000397CDF81080CDF81490CDF818A017A8C0
:103C7000324607AB02A90090102000F067F9054614
:103C80000DB90020E7E74FF0FF30E4E71CB57048BE
:103C9000006840F400606F49C1F8C40041F21000B0
:103CA0006D4908604FF001006C4908604FF000005A
:103CB00088604FF021006A49086001F10401086042
:103CC00001F10401086001F10401086001F104013F
:103CD000086001F10401086001F10401086001F1CC
:103CE0000401086001F10401086001F104010860A9
:103CF00001F10401086001F10401086001F104010F
:103D0000086001F10401086001F10401086001F19B
:103D1000040108605349086001F10401086001F1E1
:103D20000401086001F10401086001F10401086068
:103D300001F10401086001F10401086001F10401CE
:103D4000086001F10401086001F10401086001F15B
:103D50000401086001F10401086001F10401086038
:103D600001F10401086001F1040108603E490860A6
:103D70003E49086001F10401086001F10401086096
:103D80003B4908603B4908603B49086001F1040178
:103D900008604FF00100314908634FF003004863A9
:103DA0004FF0050088634FF00100C8634FF0050035
:103DB00008644FF0010048644FF005008864C8644F
:103DC00008654FF0010048658865886240F202206E
:103DD0002A4908604FF420702049C1F800014FF0D3
:103DE000640005F04EFB40F283101C49086200207D
:103DF000019002E00198401C01900198B0F5004F3D
:103E0000F8D340F20310154908620020019002E047
:103E10000198401C019001988028F9D302200F4995
:103E200048620020019002E00198401C0190019836
:103E30008028F9D34220094948628320086210484B
:103E400000880090002008620E480F4908601CBDE1
:103E5000C4C00F4000C00F40DCC10F4000C00920AB
:103E600080C1024000C2024064C2024040C1024020
:103E700050C1024060C1024070C1024004C109202B
:103E8000001801A08002080000C109204FF0E020C6
:103E9000006920F480304FF0E0210861704701286C
:103EA00008D14FF0E021096941F001014FF0E02213
:103EB000116107E04FF0E021096921F001014FF0A5
:103EC000E02211617047012808D14FF0E021096913
:103ED00041F002014FF0E022116107E04FF0E021D4
:103EE000096921F002014FF0E022116170472DE9CC
:103EF000F04104460020FCF7ADFC05464FF47A7013
:103F0000B5FBF0F04FF08071B1FBF0F7384605F0EB
:103F1000F3FE0646204605F0EFFE0746314605F063
:103F200079FF01D200BFFEE74FF0E020006940F0CA
:103F300004004FF0E02108614FF47A70B5FBF0F017
:103F40006043401E4861BDE8F08100002DE9FE4F4E
:103F500080460E4614469946DDF830B04FF0000A10
:103F60000020029001900025002721463046FCF7F2
:103F7000E9FC824600BF01F026FD692001F015FD35
:103F8000404601F012FD201201F00FFDE0B201F0F9
:103F90000CFD002703E0F05D01F007FD7F1CA74248
:103FA000F9D3404601F001FD4FEA2A2001F0FDFC63
:103FB0000AF0FF0001F0F9FC00202E4908702E499C
:103FC000087001F0FBFC2D480068019025E02B48AB
:103FD00001680198081A2A49098888420ED96D1C7F
:103FE00028480088854205D827480068401C264993
:103FF0000860C0E74FF0FF30029038E001F0B4FCF9
:1040000058B104E001F0C5FC0090FCF797FA01F00C
:10401000B6FC0028F6D001F0CCFC17480078002848
:10402000D5D01A48007818B91948007840450DD005
:104030006D1C14480088854205D816480068401C4D
:104040001449086097E70120029010E012480088A8
:10405000ABF8000010480088002805DD0E480288F3
:104060000E494846FCF76BF90020BDE8FE8F029828
:10407000FBE70000B0020010C0020010480300106F
:10408000AC020010AE020010B8020010C102001015
:10409000C2020010B4020010C4020010F81D00108B
:1040A0002DE9F04194B005460C460B2D4ADD102D4C
:1040B00048DA002C01DD002400E001240C2D0DD194
:1040C0002B4804702CB94FF400310420FDF772FA2C
:1040D00004E04FF400310420FDF7B0FA0D2D0DD1AE
:1040E000244804702CB94FF480310420FDF762FAA3
:1040F00004E04FF480310420FDF7A0FA0E2D0DD11D
:104100001D4804702CB94FF400210420FDF752FA29
:1041100004E04FF400210420FDF790FA0F2D0DD19B
:10412000164804702CB94FF480110420FDF742FAB0
:1041300004E04FF480110420FDF780FA002014B051
:10414000BDE8F0814FF0020802AF3D707F1C3C706B
:1041500013A8424603AB02A900900520FFF7F6FE24
:1041600006460EB90020EAE74FF0FF30E7E700000F
:10417000CA020010CB020010CC020010CD020010C9
:10418000F0B595B004460F46012C01DB082C02DD8A
:10419000002015B0F0BD05260297E0B28DF80C00A6
:1041A00014A8324604AB02A900902020FFF7CEFEEF
:1041B00005460DB90020ECE74FF0FF30E9E70000BD
:1041C0002DE9F04104460D4616461F463806F1B269
:1041D00040EA0140E9B240EA0120E1B20843034964
:1041E0000860034804F06AFCBDE8F0813803001061
:1041F000209D001070B50446002501220E210220EA
:10420000FFF77EFC01220F210220FFF779FC002638
:104210000AE0F1B201220320FFF772FCF1B20122A1
:104220000420FFF76DFC761C202EF2D30122002122
:104230000520FFF765FC012211460520FFF760FC11
:10424000FCF7C2FD0543607928B12C48006840F0B6
:1042500002002A49086061782078FCF711FF0543C5
:10426000A07828B120780821FCF7CEFF054304E0B0
:1042700020780021FCF7C8FF0543E07828B12078BA
:104280008021FCF765FF054304E020780021FCF75E
:104290005FFF0543207930B120784FF48071FCF73F
:1042A00093FE054304E020780021FCF78DFE0543D2
:1042B000A27920780021FCF7A5FD0543E27920785A
:1042C0000121FCF79FFD0543227A20780221FCF7AB
:1042D00099FD0543627A20780321FCF793FD05439D
:1042E000A27A20780421FCF78DFD0543E27A20783C
:1042F0000521FCF787FD0543284670BD00C0092055
:1043000010B502460B460021002400BF06E0505CB9
:104310003038204400EB80004400491C9942F6DB11
:104320000A2094FBF0F0044610BD000010B5FFF722
:10433000ADFD05480068401C03490860034800685B
:10434000401C0249086010BD4403001048030010DF
:1043500030B5A548006810F4807F6BD1A348006891
:1043600010F0010F2CD1A048006810F01F0F01D1F0
:10437000002006E09C48006800F01F009C49B1FB4B
:10438000F0F09C4908609C48006810F01F0F01D1B4
:10439000002006E09848006800F01F009449B1FB37
:1043A000F0F0964908609648006800F0010000F1BE
:1043B000010090490968B1FBF0F092490860B6E04D
:1043C0009148006810F0400F07D10020894908602B
:1043D0008A4908608B490860A9E08348006810F0AA
:1043E0001F0F01D1002006E07F48006800F01F0089
:1043F0007F49B1FBF0F07F4908607F48006810F00A
:104400001F0F01D1002006E07B48006800F01F006C
:104410007749B1FBF0F0794908607948006800F00D
:10442000010000F1010073490968B1FBF0F0754922
:1044300008607CE07548006810F4807F07D1002098
:104440006C4908606D4908606E4908606FE0674814
:10445000006810F0010F2ED16C4C246804F01F048A
:1044600004F101006A4CD4F8044104F01F01624CCD
:10447000246804F01F02664CD4F8004104F00104E3
:1044800004F1010309B9002403E0594C4443B4FB8F
:10449000F1F4584D2C600AB9002403E0544C444315
:1044A000B4FBF2F4554D2C60524C2468B4FBF3F489
:1044B000544D2C603BE05448006810F0400F07D189
:1044C00000204C4908604D4908604E4908602EE0C4
:1044D0004E4C246804F01F0404F101004C4CD4F845
:1044E000044104F01F01444C246804F01F02484CAE
:1044F000D4F8004104F0010404F1010309B90024D7
:1045000003E03B4C4443B4FBF1F43A4D2C600AB950
:10451000002403E0364C4443B4FBF2F4374D2C60E6
:10452000344C2468B4FBF3F4364D2C6000BF39489A
:10453000006810F4807F31D03648006810F01F000A
:1045400004D0042806D0062823D104E000203249F4
:10455000086022E000BF2D4A126802F01F0202F13B
:1045600001002B4AD2F8082102F01F011F4A1268ED
:1045700012F0010F06D01E4A4243B2FBF1F2264B65
:104580001A6005E01A4A4243B2FBF1F2224B1A606C
:1045900003E000202049086000BF24E01D480068B7
:1045A00010F4007F1CD01148006810F0010F0BD0F0
:1045B0001A48006800F01F0000F101000C4900FBE0
:1045C00001F0154908600EE01048006800F01F0077
:1045D00000F10100064900FB01F00F49086002E00C
:1045E00000200D49086030BD04C10F400CC10F40D0
:1045F000001BB70000000010A8C10F40040000100D
:1046000000C10F4008000010A0C10F4088C00F403B
:1046100000C00F4008C10F400C000010A8C00F40A0
:1046200021202E49086000BF2C48006810F0400F80
:10463000FAD001202A4908604FF009002949C1F841
:1046400084004FF00100284908604FF0AA00274974
:1046500008604FF05500086000BF2548006810F45E
:10466000806FFAD02320234908604FF001001D49D4
:10467000C1F8A0004FF0AA001F4908604FF0550094
:104680001849C1F8AC0000BF1C48006810F4806FE6
:10469000FAD040F201101A49086040F20120114995
:1046A000C1F808014FF00100164908604FF0020000
:1046B000154908601548164908604FF4807009498B
:1046C000C1F8C8010846D0F8B00140F00300114914
:1046D000086045F23A00034908607047A0C10F40E6
:1046E0000CC10F4000C00F4080C00F408CC00F4075
:1046F00088C00F40A4C00F40ACC00F40A8C00F40FE
:1047000004C10F4000C10F40A8C10F40DE8728043C
:10471000C4C00F40B0C10F4010B50021074800F0E1
:1047200015F8012804D106480068401C04490860B7
:104730000021024800F006F810BD0000000009400A
:104740004803001001228A400260704710B50246FB
:10475000106801248C402040C3B20BB1012010BD71
:104760000020FCE770B5002000F0AEF8054605F02B
:104770000E04062C05D1002000F0D8F8064606F0FD
:104780009E06042C01D00C2C0AD10648006806496C
:10479000064A1268885405480068401C03490860AE
:1047A00070BD000000C00040509D00104C03001080
:1047B00070B5022000F088F8054605F00E04062CBE
:1047C00005D1022000F0B2F8064606F09E06042C41
:1047D00001D00C2C0AD1064800680649064A126826
:1047E000885406480068401C0449086070BD0000F9
:1047F00000800940909D00104C03001050030010F1
:1048000003214171002101718171704710B5024689
:10481000002040F00100CB7833B1012B06D0022BF1
:1048200007D0032B08D108E000BF09E040F04000AA
:1048300006E040F0800003E000BF40F0C00000BF91
:1048400000BF4B78012B01D140F004000B78012B05
:1048500001D140F002008B78012B01D140F008001B
:10486000052A1DD2DFE802F003080D12170000F040
:10487000CF030C4C237213E000F0CF030A4C2372D9
:104880000EE000F0CF03094C237209E000F0CF03E3
:10489000074C237204E000F0CF03064CA36000BF76
:1048A00000BF10BD00C00040000001400080094072
:1048B00000C0094000400A4000218170C170012100
:1048C00001704170704700000146052922D2DFE8DF
:1048D00001F003090F151B000F48806840F2CF322A
:1048E000104070470D48806840F2CF321040F8E722
:1048F0000B48806840F2CF321040F2E709488068E8
:1049000040F2CF321040ECE70748806840F2CF32E7
:104910001040E6E70020E4E700C00040000001404E
:104920000080094000C0094000400A4001460529B6
:1049300014D2DFE801F00306090C0F000848007DDF
:1049400070470848007DFBE70748007DF8E7074807
:10495000007DF5E706484069C0B2F1E70020EFE7C7
:1049600000C00040000001400080094000C0094034
:1049700000400A402DE9F04106460F46052E3CD284
:10498000DFE806F0033C04056C0000BF00BF3046C2
:1049900004F0B8FD054626B901210820FBF742FFC7
:1049A0000CE0022E04D101210806FBF73BFF05E0D5
:1049B000032E03D101214806FBF734FF072028729C
:1049C0000020287200E02C78287D10F0010FFAD129
:1049D000802085F8300000BF287D10F0200FFBD02C
:1049E000002085F8300068602873286285F84C0044
:1049F00085F8540085F850002C7D57E001211020E7
:104A0000FBF710FF07205E4908720020087201E0E2
:104A10005B4804785A48007D10F0010FF8D18020DF
:104A20005849087000BF5648007D10F0200FFAD09A
:104A3000002054490870524948600873086281F8A0
:104A40004C00514908704E4981F850000846047DD9
:104A50004FF0000008740846047E27E00121080298
:104A6000FBF7E0FE0720494988600020886001E0EC
:104A7000464804684548406910F0010FF8D101200C
:104A80004249C86500BF4148406910F0200FFAD084
:104A900000203E49C8654860C8600862C86448652F
:104AA0000865084644690020486200BF00BF3046E0
:104AB000396804F03FFD012E04D13148007B00F03D
:104AC000C0040EE0042E04D13048C06800F0C004D9
:104AD00007E0304604F016FD0546287B00F0C004D0
:104AE00000BF787930B1012806D0022807D003280A
:104AF00008D108E000BF09E044F0010406E044F0FA
:104B0000020403E000BF44F0030400BF00BF387993
:104B1000C0B144F008043879012806D0022806D034
:104B2000032807D004280BD107E000BF09E044F0B8
:104B3000100406E044F0200403E044F0300400E0F8
:104B400000BF00BFB87928B1012802D144F00404A5
:104B500001E000BF00BF00BF012E02D108490C7365
:104B60000BE0042E03D1E0B20849C86005E03046EE
:104B700004F0C8FC05462C7300BFBDE8F0810000BE
:104B800000000140300001405400014000400A4054
:104B900070B504460D46012D1DD1012C07D11C48CE
:104BA000007840F080001B4981F830002FE0042C91
:104BB00006D11948C06D40F001001749C86526E0CC
:104BC000204604F09FFC064696F8300040F0800036
:104BD00086F830001BE0012C07D10D4800784FF01B
:104BE00000000C4981F8300011E0042C05D10A487E
:104BF000C06D00200849C86509E0204604F082FC29
:104C0000064696F83000002086F8300000BF70BDE0
:104C1000300001400000014000400A404C4AD0688A
:104C20001169084200D17047084010F0400F75D05C
:104C3000474A526D12F4803F2CD0454A126D12F44F
:104C4000004F06D0434A126842F00102414B1A60FD
:104C50001CE03F4A526D12F0010F0ED000223E4B75
:104C60001A703E4B1A603B4A126842F00102394BFF
:104C70001A6001223A4B1A6008E0364A126822F0A4
:104C80000102344B1A600022354B1A604FF4803217
:104C90002F4B5A652E4A926D12F4803F2CD02C4A2D
:104CA000126D12F4004F06D02A4A126842F0020236
:104CB000284B1A601CE0264A926D12F0010F0ED0AC
:104CC0000022254B1A70254B1A60224A126842F0C6
:104CD0000202204B1A600122214B1A6008E01D4A93
:104CE000126822F002021B4B1A6000221C4B1A6051
:104CF0004FF48032164B9A65154A526D12F4801F9C
:104D000003D04FF48012124B5A65114A926D12F47F
:104D1000801F03D04FF480120D4B9A6510F0020FE4
:104D20000AD001220D4B1A600E4A126812680F2336
:104D300003EA1272084B1A7010F0100F04D00A4ADE
:104D40001268521C084B1A60014AD06000BF6AE723
:104D500000C008206000001068000010640000100F
:104D6000580000107C0000106C00001010B58CB0D2
:104D7000FCF7DAFEFCF7EEFD044664B9FCF7C0FE72
:104D800048B901AA0BA90AA8FEF79CFC044624B165
:104D900001200CB010BD0120FBE70020F9E7000066
:104DA0002DE9F04107460D461446A1B207480268B6
:104DB0002846FEF7A7FB06462EB9620203480168A3
:104DC0003846FBF7BCFA3046BDE8F0819000001091
:104DD0002DE9F04105460E46144662022946084870
:104DE0000068FBF7ACFAA1B2054802683046FEF74E
:104DF000D9FB074617B10120BDE8F0810020FBE791
:104E00009000001003B59DF8051001709DF8041086
:104E100041700CBD03B59DF8071001709DF8061098
:104E200041709DF8051081709DF80410C1700CBD93
:104E300003B59DF8041001709DF8051041700CBD7C
:104E400003B59DF8041001709DF8051041709DF8A0
:104E5000061081709DF80710C1700CBD2DE9F0435C
:104E600093B04FF0000800260024002701224AA139
:104E70004C4801F013FB8146274683E001AB012239
:104E800002A9484801F0C8FB8146019818B90020E2
:104E900013B0BDE8F0839DF80800232801D1232535
:104EA0006FE09DF80800582801D1582569E09DF869
:104EB00008004C2801D14C2563E09DF808005928D2
:104EC00001D159255DE09DF808003B284BD1232DE9
:104ED0000AD1314603A8FFF713FAC4EBC401324AE2
:104EE00002EB810148613CE0582D09D1314603A80D
:104EF000FFF706FAC4EBC4012B4A42F8210030E068
:104F0000592D0AD1314603A8FFF7FAF9C4EBC401C1
:104F1000254A02EB8101486023E04C2D21D100207D
:104F2000C4EBC401204A02EB81018860C4EBC401D8
:104F300002EB81010861C4EBC40102EB8101C8608E
:104F400047F23050C4EBC40102EB8101886117487D
:104F50000068401C15490860641CB4F5FA6F00DB5A
:104F6000002400260DE09DF80800302809DB9DF89C
:104F70000800392805DC9DF8080003A98855701C35
:104F8000C6B27F1C0748C068B8423FF677AF0548F5
:104F900001F045FA00BF7BE7323A2F526F61642E71
:104FA00074787400349A0010003100A02C030010B3
:104FB00070B504460D4600202071401EE06229466F
:104FC000204603F00DFD08B1032070BD94F82E12A9
:104FD00094F82F0241EA0020A0F52A41553901D06A
:104FE0000220F2E794F86900010694F8680041EAAB
:104FF000004194F8670041EA002094F866100843E5
:1050000020F07F400D49884201D10020DDE794F86F
:105010008500010694F8840041EA004194F8830079
:1050200041EA002094F88210084320F07F400349B1
:10503000884201D10020C8E70120C6E7464154005C
:10504000024600E0521C107810B110788842F9D165
:10505000107870470246891E5069801E884201D828
:10506000002070479378906A01FB0300F9E7000085
:105070002DE9F04780460C46A17EE07E51EA0020F3
:1050800002D00020BDE8F087207800F03F00401EED
:1050900000EB800101EBC0064FF00109002524E080
:1050A0001A48405D205C1949495D2144497840EA2D
:1050B0000127B9F1000F11D0FF2E0BD2384601F0B5
:1050C0000FFC82463146761C38F8110001F008FCCE
:1050D000824501D00020D5E7B94605E0A7F57F401D
:1050E000FF3801D00020CDE76D1C0D2DD8D32078DE
:1050F00010F0400F07D0B9F1000F04D038F81600B7
:1051000008B10020BEE70120BCE70000859E00003A
:105110002DE9F04704468946B9F1000F06D1E7684A
:1051200017B16069B84215D8012713E049462046F7
:1051300001F0ACFE0646022E02D20120BDE8F08747
:10514000701C01D13046F9E76069B04201D93046A0
:10515000F4E74F463D4600BF6D1C6069A84204D885
:105160000225BD4201D90020E8E72946204601F08A
:105170008DFE064606B909E0701C01D0012E01D152
:105180003046DBE7BD42E7D10020D7E700BF6FF034
:1051900070422946204603F051FF8046B8F1000FC7
:1051A00008D1B9F1000F05D02A464946204603F040
:1051B00045FF8046B8F1000F0BD1E5602069401C27
:1051C0000FD02069401E2061607940F001006071BD
:1051D00007E0B8F1010F02D14FF0FF3000E00120ED
:1051E00005462846AAE700002DE9F34F83B0814623
:1051F00004980068019002E00198401C0190019819
:1052000000782F28F8D0019800785C28F4D0D9F8DD
:105210001CA000252F4600BF38467F1C01990C5C5E
:10522000202C03DB2F2C01D05C2C00D132E0FF2D91
:1052300003D3062005B0BDE8F08FE4B2812C13DB68
:10524000E0B2FE2810DC38467F1C01990E5C06EBAC
:10525000042084B2402E01DB7E2E05DD802E01DB92
:10526000FE2E01DD0620E5E70121204601F0FAFAD5
:1052700004460CB90620DDE7802C06DA214671A031
:10528000FFF7DEFE08B10620D4E728466D1C2AF899
:105290001040C1E700BF0198C11904980160202C9B
:1052A00001DA042000E00020804608E0681E3AF899
:1052B0001040202C02D02E2C00D002E06D1E002DBC
:1052C000F4D100BF0DB90620B4E700202AF815007C
:1052D0000B222021D9F8180003F0FAF9002700E08A
:1052E0007F1C3AF817002028FAD03AF817002E2829
:1052F000F6D00FB148F0030800E06D1E25B1681E1E
:105300003AF810002E28F8D10020064602904FF0FF
:10531000080B00BF38467F1C3AF8104004B963E020
:10532000202C03D02E2C04D1AF4202D048F0030829
:10533000F0E70298584501D2AF4214D1BBF10B0FF0
:1053400002D148F003084FE0AF4201D048F0030813
:10535000AF4200D948E02F46082002904FF00B0BD7
:10536000B006060ED6E7802C09DB204601F0B8FA1D
:105370000021009001F076FA044648F00208FF2C64
:1053800011DDABF101000299884204D848F003080E
:10539000CDF808B0BEE72212D9F818300298411CA7
:1053A00002911A5419E024B1214629A0FFF748FEC2
:1053B00018B15F2448F003080FE0412C04DB5A2C9D
:1053C00002DC46F0020608E0612C06DB7A2C04DCE5
:1053D00046F00106A4F1200084B2D9F818300298F2
:1053E000411C02911C5495E700BFD9F818000078C1
:1053F000E52803D10520D9F818100870BBF1080F73
:1054000001D1B006060E06F00C000C2803D006F001
:105410000300032801D148F0020818F0020F0BD155
:1054200006F00300012801D148F0100806F00C0036
:10543000042801D148F00808D9F8180080F80B803A
:105440000020F7E6222A3A3C3E3F7C7F0000000025
:105450002B2C3B3D5B5D00002DE9F04104460E46E0
:105460000021204600F0B6F90546EDB9002700BF3F
:105470002169206803F0B4FA054605B113E06069BC
:105480000078E52802D06069007820B9781C0746CA
:10549000B04201D107E000270121204600F07FF84B
:1054A0000546002DE4D000BF042D00D10725284675
:1054B000BDE8F0812DE9F04704460021204600F0C8
:1054C00089F9074617B13846BDE8F0874FF0FF0964
:1054D000CA464FF6FF70208400BF2169206803F0A0
:1054E0007FFA074607B157E065692E780EB90427A1
:1054F00052E0E87A00F03F08E52E05D018F0080FDA
:1055000008D0B8F10F0F05D04FF0FF094FF6FF702C
:1055100020843AE0B8F10F0F1CD1E06978B316F09F
:10552000400F06D095F80DA026F04006B146E08861
:1055300020844E450AD1687B504507D12946E06951
:10554000FFF796FD10B1A9F1010000E0FF2000F087
:10555000FF091AE0B9F1000F05D1284603F0E3FE78
:10556000504500D118E0A069C07A10F0010F07D1B2
:105570000B222846A16902F065FF08B90CE004E09F
:105580004FF0FF094FF6FF7020840021204600F005
:1055900006F80746002FA0D000BF384694E72DE953
:1055A000F04104468846E088461C3004000C01D0D7
:1055B000206910B90420BDE8F08116F00F0F6AD100
:1055C0002069401C2061E06828B920680089B04249
:1055D00061D80420EFE720688078401E10EA161F8B
:1055E00059D1E168206801F051FC0546012D01D830
:1055F0000220E0E7681C01D10120DCE72068406957
:10560000A84242D8B8F1000F01D10420D3E7E168E5
:105610002068FFF77DFD05460DB90720CBE7012D7A
:1056200001D10220C7E7681C01D10120C3E720682F
:1056300003F0FEFE08B10120BDE7216801F1300052
:105640004FF40072002103F043F829462068FFF769
:1056500001FD2168C86200270EE001202168087161
:10566000206803F0E5FE08B10120A4E72068C06AC5
:10567000401C2168C8627F1C20688078B842ECD842
:105680002068C06AC01B2168C862E560294620689E
:10569000FFF7E0FC2061E6802068303006F00F0163
:1056A00000EB41106061002085E72DE9FE4F0446C4
:1056B000D4F81880D4F81C900C224146684602F0B9
:1056C000D4FE00BF9DF80B0010F0010F24D0002085
:1056D00088F80B00E06101260CE033464A46694633
:1056E000404601F06DFB2046FFF7E4FE054605B19C
:1056F00002E0761C642EF0D300BF642E02D1072096
:10570000BDE8FE8F042D01D02846F9E79DF80B0077
:1057100088F80B00C4F81C909DF80B0010F0020FE5
:105720000CD0002600E0761C39F816000028FAD1CB
:1057300006F119000D21B0FBF1F700E00127394611
:105740002046FFF789FE054645BB781E070025D099
:10575000E088C11B204600F03DF80546F5B9A06978
:1057600003F0E1FD824600BF2169206803F038F9AB
:10577000054605B111E0FAB253466169E06901F0EE
:1057800097FA01202168087100212046FFF707FFE2
:10579000054615B9781E0700E6D100BFC5B92169D5
:1057A000206803F01DF9054695B9202200216069A3
:1057B00002F08EFF0B22D4E9050102F056FEA0692B
:1057C000C07A00F01800616908730120216808712F
:1057D000284695E72DE9F04104460E46E680A56887
:1057E000012D03D020684069A84202D80220BDE8FC
:1057F000F0812DB920680078032801D12068456A1E
:1058000045B920680089B04201D80220EFE720683E
:10581000476A1EE0206880784FEA001812E02946A7
:10582000206801F033FB0546681C01D10120DEE74A
:10583000022D03D320684069A84201D80220D6E790
:10584000A6EB08064645EAD229462068FFF702FC87
:105850000746E5600FB90220C9E707EB1610206183
:105860002068303006F00F0100EB4110606100202D
:10587000BDE710B5044624B1012C04D0022C0AD196
:1058800005E0002010BDFDF729FE0020FAE7FFF734
:105890006DFA0020F6E70120F4E7034623B1012B5F
:1058A00004D0022B06D103E0002070470020FCE763
:1058B0000020FAE70420F8E72DE9F04705460E46F8
:1058C0001746984625B1012D05D0022D15D10BE0C4
:1058D0002046BDE8F087424639463046FDF7C0FD18
:1058E000814600200446F4E7424639463046FFF739
:1058F00057FA814600200446EBE70420E9E7024618
:1059000022B1012A05D0022A09D105E00020014672
:10591000704700200146FBE700200146F8E7012020
:10592000F6E72DE9F04705460E461746984625B19D
:10593000012D05D0022D15D10BE02046BDE8F087E2
:10594000424639463046FDF7AAFD8146002004460E
:10595000F4E7424639463046FFF73AFA81460020DE
:105960000446EBE700BFE9E700B500F016F8014692
:1059700011F0200F01D0012000BD0020FCE700B590
:1059800000F00BF810F0010F01D0012000BD002045
:10599000FCE74FF01840407870474FF0184000780F
:1059A00070474FF01841087070474FF01841487029
:1059B000704700B50220FFF7F4FF00BD00B50120DD
:1059C000FFF7EFFF00BD00B50020FFF7EAFF00BDC5
:1059D0002DE9FC4705468846164600BF0DB9BDE8CF
:1059E000FC8700BF70892C280EDA4B48408C401C85
:1059F00081B249484184C08B401C81B24648C18372
:105A0000304603F014FAEAE7776807F110042088BB
:105A1000B0F5807F08D12079062805D16079042867
:105A200002D1608808280ED03B48008D401C81B20E
:105A300039480185C08B401C81B23748C18330464C
:105A400003F0F5F9CBE73448408B401C81B2324873
:105A50004183D4F80E000190A0690090281D01D068
:105A6000686810B94FF0000907E00098696888423B
:105A700001D1012000E000208146B9F1000F01D0E2
:105A8000012000E00220034604F1080201A9284693
:105A900000F098FBE088B0F5807F03D0B0F5007F80
:105AA0002DD12BE0B9F1000F26D0022002F0A2FA8E
:105AB000E080D4F80E00A0616868C4F80E0000BF52
:105AC00000BFA068C4F81200A089E082A068C7F8EF
:105AD0000200A089F880D8F80000A060B8F804009F
