:020000040000FA
:10000000E8AC0010C1010000C5010000C7010000FC
:10001000C9010000CB010000CD010000000000007C
:10002000000000000000000000000000CF01000000
:10003000D101000000000000D30100001D4D0000B0
:10004000D7010000D7010000D701000035510000A2
:10005000D7010000C1510000D70100000D5200007F
:10006000D7010000D7010000D7010000D701000030
:10007000D7010000D7010000D7010000D701000020
:10008000D7010000D7010000D7010000D701000010
:10009000D7010000D7010000D7010000D701000000
:1000A000A5570000D7010000D7010000D7010000CC
:1000B000C9120000612E0000D7010000D701000026
:1000C000D7010000D7010000D7010000D7010000D0
:1000D000D7010000D7010000D7010000D7010000C0
:1000E000D701000000F002F800F05AF80AA090E8EA
:1000F000000C82448344AAF10107DA4501D100F0E3
:100100004FF8AFF2090EBAE80F0013F0010F18BF55
:10011000FB1A43F0010318472457030064570300F8
:100120000A444FF0000C10F8013B13F0070408BF1D
:1001300010F8014B1D1108BF10F8015B641E05D0BB
:1001400010F8016B641E01F8016BF9D113F0080F70
:100150001EBF10F8014BAD1C0C1B09D16D1E58BF02
:1001600001F801CBFAD505E014F8016B01F8016B39
:100170006D1EF9D59142D6D37047000000230024AC
:1001800000250026103A28BF78C1FBD8520728BFA7
:1001900030C148BF0B6070471FB51FBD10B510BD03
:1001A00000F072F91146FFF7F7FF08F091FC00F03C
:1001B00090F903B4FFF7F2FF03BC00F091F90000DF
:1001C00008480047FEE7FEE7FEE7FEE7FEE7FEE73A
:1001D000FEE7FEE7FEE7FEE703480449044A054B55
:1001E00070470000E5000000E8780010E8AC00105F
:1001F000E87C0010E87C001053EA020C00F06980F3
:100200002DE9F04B4FF00006002B1FBFB3FA83F52A
:1002100003FA05F424FA05F65E4012BF1643B2FA5B
:1002200082F502FA05F4C5F120051EBF22FA05FC8D
:1002300044EA0C04203556EA044C4FEA144418BF33
:10024000641C4FF000084FF00009904271EB030C62
:1002500039D3002919BFB1FA81F701FA07F6B0FACC
:1002600080F700FA07F6C7F120071EBF20FA07FC47
:1002700046EA0C062037B6FBF4FCA7EB0507103F57
:1002800007F01F0BCBF120060CFA0BFB2CFA06F63D
:1002900044BFB3460026202FA4BF5E464FF0000B9C
:1002A0005BEA060C08BF4FF0010B19EB0B09ABFB27
:1002B000027C48EB0608C01B06FB02CC0BFB03CC00
:1002C00071EB0C01C1E70B46024641464846BDE8CA
:1002D000F08B13B54FF000004FF00001AFF300803A
:1002E000BDE81C40704740EA010310B59B070FD1E1
:1002F000042A0DD310C808C9121F9C42F8D020BA96
:1003000019BA884201D9012010BD4FF0FF3010BD4D
:100310001AB1D30703D0521C07E0002010BD10F81B
:10032000013B11F8014B1B1B07D110F8013B11F8E1
:10033000014B1B1B01D1921EF1D1184610BD032A9F
:1003400040F2308010F0030C00F0158011F8013BF2
:10035000BCF1020F624498BF11F801CB00F8013BD9
:1003600038BF11F8013BA2F1040298BF00F801CB9D
:1003700038BF00F8013B11F0030300F02580083A74
:10038000C0F0088051F8043B083A51F804CBA0E8CB
:100390000810F5E7121D5CBF51F8043B40F8043B20
:1003A000AFF30080D20724BF11F8013B11F801CB55
:1003B00048BF11F8012B24BF00F8013B00F801CB26
:1003C00048BF00F8012B704710B5203AC0F00B80F1
:1003D000B1E81850203AA0E81850B1E81850A0E849
:1003E0001850BFF4F5AF5FEA027C24BFB1E81850A3
:1003F000A0E8185044BF18C918C0BDE810405FEA13
:10040000827C24BF51F8043B40F8043B08BF70478E
:10041000D20728BF31F8023B48BF11F8012B28BF93
:1004200020F8023B48BF00F8012B70474FF0000254
:1004300000B5134694469646203922BFA0E80C50DA
:10044000A0E80C50B1F12001BFF4F7AF090728BFB5
:10045000A0E80C5048BF0CC05DF804EB890028BF31
:1004600040F8042B08BF704748BF20F8022B11F05A
:10047000804F18BF00F8012B7047704770477047D6
:1004800000487047802C00207546FFF7F9FFAE4604
:1004900005006946534620F00700854618B020B590
:1004A000FFF79AFEBDE820404FF000064FF000072E
:1004B0004FF000084FF0000B21F00701AC46ACE80C
:1004C000C009ACE8C009ACE8C009ACE8C0098D4679
:1004D00070470446AFF300802046FFF76AFE000035
:1004E00001491820ABBEFEE726000200704700005D
:1004F00070B504463948007808286BD2DFE800F070
:10050000040A10162336494F692C02D101203349C1
:10051000087060E0324804700220304908705AE0E8
:100520003048047003202D49087054E02E480480A0
:1005300000884FF6FF7101EA00202B490880042053
:100540002649087047E0284800882044264908804A
:100550000846008818B906202049087005E00520E3
:100560001E49087000202149088034E020481F49B6
:10057000098844541D480088401C1C4908800846CE
:10058000008819490988884202D106201349087059
:1005900021E0184804700720104908701BE0164835
:1005A000047008200D490870124805784FF6FF7056
:1005B00000EA052510480078284485B20A480188D9
:1005C0000B4800F0C3F80646B54202D101200B49A2
:1005D000087000E000BF00BF70BD000044020010C2
:1005E0005502001056020010580200105C02001064
:1005F000040300105A0200105B02001054020010A5
:100600007047704730B593B0002412A8224602AB61
:1006100001A90090522004F031F8054615B90020D8
:1006200013B030BD4FF0FF30FAE70000012907D1C9
:10063000084A126842EA0002074BC3F8C42007E0E8
:1006400031B9044A126822EA0002034BC3F8C420FD
:1006500070470000C4C00F4000C00F40014631B1D8
:10066000012907D0022908D003290CD108E0074846
:100670000068704706480068FBE706480068F8E72E
:1006800005480068F5E700BFFEE700000000002015
:1006900004000020080000200C00002070B5064671
:1006A0000D4636B1012E12D0022E1ED0032E3ED1A1
:1006B00029E02148006820F01F0405F01F0040EAEF
:1006C00004041E48C0F8044104F04AFB31E01C4811
:1006D000006820F01F0405F01F0040EA04041748DA
:1006E000C0F8A84104F03CFB23E01648006820F065
:1006F000010405F0010040EA04041048C0F800417C
:1007000004F02EFB15E01048006820F01F0405F0EF
:100710001F0040EA04040948D0F8080105F01F0151
:1007200040EA01000849086004F01AFB01E000BF3C
:10073000FEE700BF70BD000004C10F4000C00F40C5
:10074000A8C10F4000C10F4008C10F4070B502465C
:100750000C46FF25FF2309E012F8010B80EA050192
:100760000648405C80EA03050548435C2000A4F18C
:100770000106B4B2F0D143EA052070BD400000107C
:100780004001001070B50446744800EB04256878F9
:10079000012825D128787249095D884203D00020BC
:1007A0007049085570BD6F48005D082800D0CFE043
:1007B0006C48025D694800EB0421204603F098F97B
:1007C000684908550846005D002808D001206649A0
:1007D0000855624800EB0420644941F82400ACE06D
:1007E0006878032825D128785D49095D884203D0BF
:1007F00000205C490855D5E75A48005D082800D01C
:10080000A6E05848025D554800EB0421204603F05D
:100810006FF9544908550846005D0028DFD00120D3
:10082000514908554D4800EB0420504941F8240037
:1008300083E06878052825D128784949095D8842F0
:1008400003D0002047490855ACE74648005D08281A
:1008500000D07DE04348025D404800EB0421204683
:1008600003F046F93F4908550846005D002864D06A
:1008700001203D490855394800EB04203B4941F827
:1008800024005AE06878062824D128783449095D84
:10089000884203D000203349085583E73148005D82
:1008A000082800D054E02F48025D2C4800EB0421BA
:1008B000204603F01DF92B4908550846005DC0B3DA
:1008C000012029490855254800EB0420274941F813
:1008D000240032E0687810282CD128782049095D5E
:1008E000884203D000201F4908555BE71D48005D82
:1008F0000B2800DA2CE0A8790930C6B21948005D4F
:10090000B04200D024E01748025D144800EB0421F7
:10091000204603F0EDF8134908550846005D40B144
:100920000120114908550D4800EB04200F4941F8FA
:10093000240002E000200B4908550A48005D002809
:1009400005DD204604F012FC00200649085529E781
:1009500000200449085500BF24E70000781F00204C
:100960007400002076000020780000207C00002029
:1009700010B50446012000FA04F1042000F020FE26
:1009800010BD0000F8B504460E461648056809E09B
:100990000020009002E00098401C0090124900984E
:1009A0008842F8D3002000F021F80228F0D0E800B7
:1009B00000F10050076C4EB1601EC0F30A0040F019
:1009C0004041E80000F10050416408E0601EC0F3BF
:1009D0000A0040F00041E80000F100504164384650
:1009E000F8BD00002841082040420F0010B5044621
:1009F0004CB9124801681248D0F828211148006803
:100A000000F1010308E0104801680D48D0F81421F6
:100A10000E48006800F10103914201D1002010BD91
:100A200021B9581E904201D10220F8E7501C8142A2
:100A300001D10220F3E70120F1E700002C4108205A
:100A400000400820244108201841082010410820B7
:100A500008480168084801604FEAC10000F10050F1
:100A60000068064A10604FEAC10000F100500068BB
:100A70007047000018410820180000201C000020CA
:100A8000054801684FEAC10000F10050008CC0F336
:100A90000A0000F10100704718410820034801686E
:100AA0004FEAC10000F10050006A70471841082069
:100AB000034801684FEA810000F10050806D7047E3
:100AC000284108201CB504462C2221463D48FFF74A
:100AD0007BFC01218807FFF7A9FD4FF44F403A49FD
:100AE00008607820394908604FF06400019002E006
:100AF0000198401E019001980028F9D10220324946
:100B0000086030204860400148610020FFF7A6FDE2
:100B10002F49B0FBF1F000900020019009E02D4832
:100B20000199405C0099884200DB05E00198401C77
:100B3000019001980F28F2D300BF01980F2801D32C
:100B400000201CBD0198401C0190A0891E494861ED
:100B5000019800F00F004FF4004141EA80001A496B
:100B600008620846006A20F40040086243F20F70F1
:100B700008611220C860400114490860206930B142
:100B8000204621698847012801D00020D9E7A068C4
:100B900009F0F2F809F0B6F809F064F926200E49D8
:100BA00008604FF001014FF0FF0000F019F84FF618
:100BB000FF700A49086000F081F800F047F8012052
:100BC000BFE7000040050020004008200041082049
:100BD000A025260032A7000000420820E84F082088
:100BE000012905D1054A12680243044B1A6004E04A
:100BF000024A12688243014B1A607047E44F082092
:100C0000014601F01F000F4B1B7903F01F0340EA60
:100C100003200D4B986201205862002200BF06E0BD
:100C20000948406B10F0010F00D103E0521CB2F5EF
:100C3000A02FF5D300BF0020034B58621846006B6D
:100C400080B2704740050020004008200648006838
:100C500040F001000549C1F800010846006840F075
:100C60000100086070470000004108200040082093
:100C700078B10A49496841F00101084A51600849C0
:100C8000096841F48061C2F800114FF015019160CC
:100C900002E01221014A91607047000000400820E4
:100CA0000041082020B14FF48071034A916102E0B5
:100CB0000021014A91617047004008200348006804
:100CC00040F002000249C1F80001704700410820CD
:100CD000004008200549086800F101010846042980
:100CE00000D1002001490860704700001841082029
:100CF0000749086800F101010846064AD2F8242194
:100D000002F10102914200D10020014908607047C0
:100D100028410820004008202DE9F0470746D7F871
:100D200004903D681948D0F814A0681C4FF6FE7175
:100D300000EA0105B5FBFAF60DB9BDE8F0871FE042
:100D4000002E01DD504600E02846044604B919E0B3
:100D50002EB9A0B20121FFF715FE804604E0A0B233
:100D60000021FFF70FFE804604E039F8020B28F857
:100D7000020BA41E002CF8D1761E2D1BFFF7B8FF26
:100D8000002EDDDA00BF00BFD7E7000000400820DA
:100D900010B500F01F030C4C247904F01F0443EA43
:100DA00004230A4CA3622346D962002200BF06E056
:100DB000064B5B6B13F0010F00D103E0521CB2F540
:100DC000A02FF5D300BF10BD400500200040082033
:100DD00010B50020FFF742FC0A49884204D90121DE
:100DE0000220FFF75BFC03E000210220FFF756FC26
:100DF0000121C802FFF71AFC012003490860002006
:100E000010BD000000B4C40400C0092010B50446A1
:100E100034B1012C2DD0022C54D0032C28D17AE0EF
:100E2000062922D2DFE801F003080D12171C02F098
:100E30000F004F4B18601AE002F00F004D4B186086
:100E400015E002F01F004C4B186010E002F01F008C
:100E50004A4B18600BE002F01F00494B186006E097
:100E600002F00F00474B186001E0022010BD00BFE8
:100E70007AE0062922D2DFE801F003080D12171CE0
:100E800002F00F00404B18601AE002F00F003F4BD9
:100E9000186015E002F01F003D4B186010E002F0F2
:100EA0001F003C4B18600BE002F01F003A4B18602B
:100EB00006E002F00F00394B186001E00220D5E790
:100EC00000BF51E0062922D2DFE801F003080D122D
:100ED000171C02F00F00324B18601AE002F00F00EE
:100EE000304B186015E002F01F002F4B186010E027
:100EF00002F01F002D4B18600BE002F01F002C4B7E
:100F0000186006E002F00F002A4B186001E0022092
:100F1000ACE700BF28E0062922D2DFE801F0030891
:100F20000D12171C02F00F00234B18601AE002F09C
:100F30000F00224B186015E002F01F00204B1860D4
:100F400010E002F01F001F4B18600BE002F01F00C2
:100F50001D4B186006E002F00F001C4B186001E00A
:100F6000022083E700BF00BF00BF00207EE7000033
:100F700004C2092008C209200CC2092010C209209D
:100F800014C2092018C2092024C2092028C209203D
:100F90002CC2092030C2092034C2092038C20920DD
:100FA00044C2092048C209204CC2092050C209206D
:100FB00054C2092058C2092064C2092068C209200D
:100FC0006CC2092070C2092074C2092078C20920AD
:100FD000024632B1012A15D0022A24D0032A44D174
:100FE00032E02448006820F48070234BC3F80002EC
:100FF0002048006801F4807340EA03001E4BC3F8E8
:10100000000234E01D48006820F480701A4BC3F8D9
:1010100020021A48006801F4807340EA0300164B6E
:10102000C3F8200223E01648006820F48070124BB9
:10103000C3F840021248006801F4807340EA0300DC
:101040000D4BC3F8400212E00E48006820F4807097
:10105000094BC3F860020B48006801F4807340EA52
:101060000300054BC3F8600201E00220704700BF97
:101070000020FBE700C2092000C0092020C209208F
:1010800040C2092060C2092010B502460B4600216B
:10109000082B04D0102B04D0202B06D103E0002114
:1010A00005E0012103E0022101E0022010BD00BFA4
:1010B00032B1012A13D0022A20D0032A3CD12CE0DD
:1010C0002048006820F003001F4CC4F800022046AE
:1010D000D0F8000240EA0100C4F800022EE01B48EC
:1010E000006820F00300184CC4F820022046D0F815
:1010F000200240EA0100C4F820021FE01448006802
:1011000020F00300104CC4F840022046D0F8400202
:1011100040EA0100C4F8400210E00E48006820F0E8
:101120000300094CC4F860022046D0F8600240EA8F
:101130000100C4F8600201E00220B7E700BF002010
:10114000B4E7000000C2092000C0092020C2092025
:1011500040C2092060C20920024632B1012A15D0DE
:10116000022A24D0032A44D132E02448006820F027
:101170008000234BC3F800022048006801F0800380
:1011800040EA03001E4BC3F8000234E01D4800682B
:1011900020F080001A4BC3F820021A48006801F0C2
:1011A000800340EA0300164BC3F8200223E01648F0
:1011B000006820F08000124BC3F84002124800681B
:1011C00001F0800340EA03000D4BC3F8400212E037
:1011D0000E48006820F08000094BC3F860020B48FD
:1011E000006801F0800340EA0300054BC3F8600289
:1011F00001E00220704700BF0020FBE700C2092089
:1012000000C0092020C2092040C2092060C2092074
:10121000024632B1012A15D0022A24D0032A44D131
:1012200032E02448006820F00800234BC3F8000295
:101230002048006801F0080340EA03001E4BC3F891
:10124000000234E01D48006820F008001A4BC3F883
:1012500020021A48006801F0080340EA0300164B18
:10126000C3F8200223E01648006820F00800124B63
:10127000C3F840021248006801F0080340EA030086
:101280000D4BC3F8400212E00E48006820F0080041
:10129000094BC3F860020B48006801F0080340EAFC
:1012A0000300054BC3F8600201E00220704700BF55
:1012B0000020FBE700C2092000C0092020C209204D
:1012C00040C2092060C209202DE9F041F5E08148C3
:1012D000056015F0030F3DD0FFF7E0FB0646002444
:1012E00016F4000F01D0102000E00020044316F097
:1012F000807F01D0082000E00020044316F0007F2A
:1013000001D0042000E000200443C6F3C060044381
:1013100016F0805F01D0402000E00020044316F06A
:10132000005F01D0202000E00020044316F4801F5D
:1013300002D04FF4805000E00020044314B925F09F
:10134000020506E06448006A18B16348016A204655
:10135000884700BF15F0300F32D0FFF7A9FB0646D3
:10136000002416F0806F02D04FF4007000E00020DF
:10137000044316F0006F02D04FF4807000E00020AC
:10138000044316F0805F01D0802000E00020044379
:1013900016F0005F02D04FF4806000E000200443AC
:1013A00016F0804F02D04FF4006000E000200443AC
:1013B0004948006A18B14848016A2046884700BF7A
:1013C00015F0080F5ED00120FFF710FB002859D060
:1013D000FFF756FB0746002F54DDFF1EFFF75EFBAD
:1013E0003E4908424ED13E48007800EB40003D495E
:1013F00001EB80203C49096800EB4104FFF728FB22
:10140000064639480068384437490860084600688D
:10141000B0F5C06F09D3002008602F48006A80B380
:101420002D48016A042088472BE004E036F8020BBF
:1014300024F8020BBF1E002FF8DCFFF72FFB10F083
:10144000804F1CD02448806958B12549097801EBA8
:101450004101244B03EB81201F498A692249096815
:1014600090470020204908601D480078401C1C4916
:10147000087008460078022801DB00200870FFF79A
:1014800029FC00BF15F0400F05D01348C06910B10A
:101490001149C869804715F4805F05D00E48806AFD
:1014A00010B10D49886A804715F4005F05D00A48DD
:1014B000406A10B10849486A804706480838006801
:1014C0000449091F0968084005007FF400AFBDE822
:1014D000F0810000E84F0820400500200000901B2C
:1014E000140000206C0500201000002010B50446F8
:1014F0000020107010BD00002DE9F05F8046894685
:1015000016469A46DDE90A5B002704E000202949D7
:101510000968C8557F1C1F2FF8D335B1032D08D09B
:10152000122D08D0252D08D101E0002408E0082460
:1015300006E0122404E0242402E009FB06F400BFC4
:1015400000BF1D491B48006804F056FA1B4801689B
:1015500018480068001D04F04FFA2146154800683D
:10156000083004F049FABAF1010F01D1002000E07F
:1015700050461049096808730E48006880F80EB09C
:101580000C480068C573032D01D0122D03D1094901
:101590000968CC7405E0414606480068113004F043
:1015A00015FA314603480068163004F007FABDE822
:1015B000F09F000054000020555342436C0000206F
:1015C00070B506460C46304600F004F8054605B1F5
:1015D000EC6170BD01460020062915D2DFE801F05C
:1015E0000305080B0E110A480FE0094820300CE0F3
:1015F0000748403009E00648603006E00448803083
:1016000003E00348A03000E000BF00BF70470000C7
:101610000080092010B50121C803FFF707F810BDAD
:101620002DE9F04107460D4616463846FFF7D2FF32
:1016300004463CB11EB120682843206002E02068C7
:10164000A8432060BDE8F08170B506460C463046E0
:10165000FFF7C0FF054605B1AC6170BD70B594B031
:101660000446002513A82A4603AB02A900900620D1
:1016700003F004F806461EB9BDF84C00042803D058
:101680004FF0FF3014B070BD039820600020F9E7E0
:101690002DE9F04393B006460024A04612A8424626
:1016A00002AB01A90090072002F0E8FF8146B9F1E2
:1016B000000F03D1BDF84800042804D04FF0FF30DC
:1016C00013B0BDE8F0839DF80950E843C5B29DF81A
:1016D0000870F843C7B207EB05241148007810B929
:1016E00024F4805401E00F4804430F48007810B9F7
:1016F00024F4005401E00D4804430D48007810B96B
:1017000024F4804401E00B4804430B48007810B9EE
:1017100024F4004401E00948044334600020CFE78A
:101720005E0200100010FFFF5F0200100020FFFFAC
:10173000600200100040FFFF610200100080FFFF08
:1017400070B594B00446002513A82A4603AB02A93D
:101750000090312002F092FF06461EB9BDF84C0001
:10176000042803D04FF0FF3014B070BD0398206000
:101770000020F9E72DE9F04F95B004460D461646D6
:101780001F46DDE91FABDDF878904FF0000813A885
:10179000424603AB02A90090302002F06FFF149084
:1017A000149818B9BDF84C00202804D04FF0FF3031
:1017B00015B0BDE8F08F0398206004982860059864
:1017C0003060069838600798C9F800000898CAF891
:1017D00000000998CBF800000A99219801600020C8
:1017E000E6E7000010B500F097FC00F0C3FC00F045
:1017F000F5FC00F0B6FC00F0B8FC002204A105489E
:1018000005F07CFB002204A1044805F077FB10BD25
:10181000313A000088740010323A0000B8760010A7
:1018200001480068C0B27047008009400248406922
:1018300000F0010070470000008009400148006886
:10184000C0B2704700C000400248406900F001008B
:101850007047000000C000400EB502208DF8000067
:1018600000208DF8050001208DF8030008208DF878
:10187000010000208DF804008DF8020002208DF890
:1018800006008DF807001F208DF80A008DF809006A
:101890008DF808008DF80B00684603F0B9F90EBD0D
:1018A00010B5044602221621042002F067FB022232
:1018B0001721042002F062FB0A48046003F0CEFC0A
:1018C0000849022003F084FD074803F023FD064980
:1018D000022003F0C9FC0121022003F01DFF0020BB
:1018E00010BD0000340500203C05002070B5044602
:1018F0000D4600232A462146022003F077FE70BDE4
:1019000010B5044601220221002002F037FB01221B
:101910000321002002F032FB0A48046003F09EFC21
:101920000849002003F054FD074803F0F3FC064982
:10193000002003F099FC0121002003F0EDFE0020BF
:1019400010BD0000340500203C05002070B50446A1
:101950000D4601232A462146002003F047FE70BDB4
:1019600010B5334C3348046004F580703249086088
:1019700004F588703149086004F5907030490860BA
:1019800004F598702F49086004F5A0702E4908608E
:1019900004F5A8702D49086004F5E8702C4908602A
:1019A00004F580502B4908600846006812302A4927
:1019B0000860084600680930284908602048006827
:1019C00000F0D8F81F48006800F0D4F81E480068FE
:1019D00000F0D0F81848006800F012FB17480068C3
:1019E00000F00EFB1348006800F0B2F9322000F05E
:1019F000A5F800201A4948600862886201208860C2
:101A0000184848630846406820F0C00040F0800055
:101A100048604FF4803008650648006888610846D1
:101A2000C068C96808430E49C8600F48086110BD06
:101A3000004000204C00002044000020480000200E
:101A4000380000203C00002040000020540000200E
:101A50005800002060000020640000205C0000208E
:101A600000C00820DF2E7827520000802DE9F847BB
:101A700006460F4690469946DDE9094A4B464246DE
:101A800039463046009400F02FF908230F48002112
:101A900002680F48006800F039FA05469DB944B164
:101AA000234652464FF480110948006800F02EFA90
:101AB000054645B900231A464FF400210448006842
:101AC00000F024FA05462846BDE8F88754000020B7
:101AD000380000202DE9F84706460F469046994603
:101AE000DDE9094A4B46424639463046009400F04B
:101AF000FBF808230F48002102680F48006800F037
:101B000005FA05469DB944B1234652464FF40021DB
:101B10000948006800F0FAF9054645B900231A465D
:101B20004FF480110448006800F0F0F9054628469B
:101B3000BDE8F887540000203800002018B504469E
:101B40000020009006E04FF47A7000F007F800984B
:101B5000401C00900098A042F5D318BD08B50021A4
:101B6000009102E00099491C00918100009A914285
:101B7000F8D808BD0021016041608160C1607047F4
:101B80007CB5002508E00120FFF7D8FF6D1C42F26C
:101B90001070854200DD03E04D4800680028F2D057
:101BA00000BF6420FFF7CAFF4A48006810F0010F29
:101BB0000CD010204849486500BF4748406D10F0E0
:101BC000100FFAD14FF4801043494865414800682E
:101BD00010F0020F0CD010203F49886500BF3E482E
:101BE000806D10F0100FFAD14FF480103A498865DB
:101BF000C820FFF7A3FF4FF4901038490968086028
:101C000037480068122100234FF48072CDE900109C
:101C100006218020FFF72AFF04460CB120467CBD38
:101C20002F480068C07900042C490968086000202A
:101C300000900346012205210190FFF74BFF044667
:101C40000CB12046EBE70220FFF778FF234800683D
:101C5000006840F0010021490968086021480068D7
:101C6000092100234FF40072CDE9001006218020E5
:101C7000FFF7FCFE04460CB12046D0E71948006887
:101C8000801C02F00DFA06461648006800234FF447
:101C900000720621CDE900608020FFF7E7FE0446D0
:101CA0000CB12046BBE700F0BFF804460CB120465B
:101CB000B5E7002000900346012209210190FFF7BB
:101CC00009FF04466420FFF739FF2046A7E700001C
:101CD000200000202800002000C00820380000203C
:101CE00060000020640000202DE9F04305460E4608
:101CF00017469846DDF81C90002404E000201049A7
:101D000009680855641C4C45F8DB0D4800680570EF
:101D10000B4800684670394609480068801C03F08B
:101D200063FE414606480068001D03F05DFE49461B
:101D300003480068801D03F057FEBDE8F0830000F3
:101D40005400002001480078704700002400002063
:101D5000002107E0002240F82120A0F88020C0F8F0
:101D60008420491C2029F5D37047000010B527486E
:101D7000006840F000402649C1F8C4004FF0190047
:101D80002449086000BF2448006800F019001928A1
:101D9000F9D101202149086002464FF01F014FF0A0
:101DA000000002F0EBF803220E21002002F0E6F81A
:101DB00001220D21002002F0E1F801220C21002077
:101DC00002F0DCF801221F21104602F0D7F8FFF7DD
:101DD000C7FD18200121814042094FF0E02303EBA9
:101DE0008202C2F8001100BF0021002807DACA06EB
:101DF000140E0B4A00F00F031B1FD45403E0CA0655
:101E0000130E084A135400BF10BD0000C4C00F4099
:101E100000C00F40F4CF0820F8CF082010C10820E0
:101E200018ED00E000E400E010B53448026800243A
:101E30005078022802D06FF00A0010BD10780244DA
:101E40004BE05078042802D0052842D10FE05079A9
:101E500008280BD19079062808D1D079502805D1CF
:101E600001240020264908701078024434E0D0781C
:101E700000F00300022829D1907810F0800F12D0D2
:101E8000101D02F00DF9917801F07F01012343EA62
:101E9000C11141F4805141EA00401A4909680860C3
:101EA0001078024414E0101D02F0FAF8917801F065
:101EB0007F01012343EAC11141F4006141EA00407E
:101EC0001149096808601078024401E01078024462
:101ED00002E01078024400BF00BF08480068801C80
:101EE00002F0DEF80549096808449042A9D10CB116
:101EF0000020A2E76FF00B009FE7000064000020C5
:101F0000240000203C000020400000203FB581B0AC
:101F10000446154635480068844209D1029818B92C
:101F20004FF00070009005E04FF04070009001E02D
:101F300000200090029840F480200099084340F06F
:101F400070402B490968086000202A490968086028
:101F500027480068456000202649096848602548F0
:101F60000068234909688860002022490968886060
:101F7000581E28441E490968C86000201D49096888
:101F8000C860A06800F00200194909680843A06011
:101F90001848006860600020E060144800688442CF
:101FA0000CD115480462806840F002001249886034
:101FB0000846406840F0100048600BE00E4884621C
:101FC000806840F004000C4988600846406840F092
:101FD0002000486000F01AF80848007810B9002086
:101FE00005B030BD4FF0FF30FAE7000038000020A8
:101FF000440000204800002000C0082030000020DD
:102000000021016041608160C16070470949086832
:1020100006E008490968091AB1F5FA6F00D903E02A
:10202000054909680029F4D000BF0021024A116067
:1020300070470000200500202C0000202DE9F04111
:1020400007460D461646384600F010F80446012EA5
:1020500007D1012D02D04020206004E04420206000
:1020600001E04020A061BDE8F0810000014621B1FF
:10207000012904D0022906D103E0054805E00548FE
:1020800003E0054801E0002000BF00BF70470000EA
:1020900000C0014000C0054000000A402DE9F041A9
:1020A00005460F462846FFF7E1FF064625B1012DFC
:1020B00004D0022D08D104E0802407E04FF400246E
:1020C00004E04FF0806401E0BDE8F08100BF012131
:1020D0002046FEF7ABFA3946304600F004F864209B
:1020E000B06100BFF0E770B504460D460120FEF771
:1020F000B5FAB0FBF5F6700820612069301A60610E
:1021000070BD000003480068401C024908600020C0
:1021100070470000D004002010B502221E21104696
:1021200001F02CFF02221F21104601F027FF054974
:102130000220FFF7B3FF012200210220FFF77EFFFC
:1021400010BD0000400D03007CB505460C4601950E
:1021500000946846FEF7E0FD7CBD10B500F070F815
:1021600010BD10B5FFF778FB10BD10B501F066FC8F
:1021700010BD00000EB500F035F810481049086099
:102180001048114908606FF07F401049086006F060
:10219000FDFB0F480F4900220B4BCDE900210290B7
:1021A0000A4A07490C4807F07FF90B4807F0C4F9C1
:1021B000094807F0D9F900F0A9F80EBDC0A80064DD
:1021C0009C020010C0A80001A4020010A002001090
:1021D0004D6C0000356D0000502C002010B501F052
:1021E000E9FF10BD10B5052002F019FA012002F038
:1021F00002FA012002F0EBF910BD10B504F006F967
:1022000010BD0000064807490860074807490860F4
:1022100007480849086008480849086070470000F6
:10222000B94000008C000020D14000009000002048
:102230000106000094000020030600009800002022
:1022400000B58FB02DA103C9CDE901010122002104
:10225000104601F093FE01221146104601F08EFE59
:1022600001220421104601F089FE012208211046B6
:1022700001F084FE01220921104601F07FFE0122B7
:102280000A21104601F07AFE01220E21104601F0CB
:1022900075FE01220F21104601F070FE012210216F
:1022A000104601F06BFE01221121104601F066FE7E
:1022B0000020039001A8059001208DF810004FF434
:1022C000C060ADF818000F4807900F480890002034
:1022D0000A900D900C9009E04FF480100E9002E0EF
:1022E0000E98401E0E900E980028F9D103A8FEF714
:1022F000E9FB0028F0D00FB000BD00001E306CA23A
:10230000455E0000853E0000A73E000010B508F0C5
:102310004DF8094908600846006860B140F2D242B1
:1023200006490548006807F0DDFE0022044902481E
:10233000006808F075F810BDAC02001028580300C2
:1023400029A4000030B593B001240120019002A817
:10235000224603AB01A90090022002F08FF9054646
:1023600015B9002013B030BD4FF0FF30FAE7000080
:10237000F0B58AB005464FF0FF37202606200090C2
:10238000019501200290039005A8049026E0042006
:1023900000F0D8F8074617B138460AB0F0BD00F093
:1023A000FBF988B9684600F01DF9044614B14FF0F6
:1023B000FF3709E00B490598084201D04816ECE7C1
:1023C000042000F0BFF8E8E70020099002E0099837
:1023D000401C099009982028F9D3761E002ED6D1EA
:1023E0003846DAE70880F8FD2DE9F0418AB0054665
:1023F0004FF0FF38204840EA85774FF400562920F7
:102400000090019701200290039005A804900020FD
:1024100001F024F82BE000F0BFF95FEA000818D1C2
:10242000684600F0DFF8044614F0040F02D06FF0A5
:10243000020812E0059810F0004F02D16FF0020878
:102440000BE00598C0F380700C4908704FF000084D
:102450000FE040460AB0BDE8F0810020099002E09C
:102460000998401C099009982028F9D3761E002E5F
:10247000D1D100BF4046EDE70080FF0020000010F2
:1024800018B54FF0FF34FF202549087000F04CF8D4
:1024900008B1204618BD002000F0E0FF00200090A9
:1024A00002E00098401C00900098B0F5405FF8D31F
:1024B00000F0B4F90446A01C01D12046EAE774B943
:1024C0000120FFF791FF040009D102201449087090
:1024D0001448007808B1032008700020DAE73CB106
:1024E0000020FFF781FF040002D10D490870D1E7F9
:1024F000A4B1012000F0B2FF0020009002E000989B
:10250000401C00900098B0F5405FF8D300F0C6F989
:1025100020B90120024908700020BBE70020B9E77C
:10252000210000102000001000B585B000200090B0
:102530000190029003900490684600F06BFE00202A
:1025400005B000BDF8B504464FF0FF373D0C20E064
:10255000684600F0BFFB00B11DE0009810F4807FDA
:1025600002D16FF004070EE00098C0F34320A042B0
:1025700007D00098C0F34320072804D06FF0030071
:10258000F8BD0020FCE76D1E002600E0761C202E22
:10259000FCD3002DDCD100BF3846F1E71049486B71
:1025A00010F0010F02D001210D4A916310F0040FC9
:1025B00002D004210A4A916310F0400F02D040215A
:1025C000074A916310F0800F02D08021044A916382
:1025D00010F4006F03D04FF40061014A916370471B
:1025E00000000C402DE9F0410446D4F80080A668B4
:1025F0002769204600F00EFE07B936B13A4631464B
:10260000404600F0B1FB054601E06FF001052846A9
:10261000BDE8F0812DE9F0438AB0044688464FF0CA
:10262000FF39B8F1010F01D9122700E01127202549
:10263000009720480078032801D1019401E060024E
:10264000019001200290039005A804902DE0042041
:10265000FFF778FF20B16FF003000AB0BDE8F08308
:102660006846FFF7BFFF064616B14FF0FF3912E08C
:1026700011490598084201D04816EEE70520FFF7FA
:1026800061FF30B10420FFF75DFF10B16FF0030070
:10269000E3E70020E1E70020099002E00998401CF0
:1026A000099009982028F9D36D1E002DCFD14846F6
:1026B000D3E70000210000100880F8FDF0B58AB0D3
:1026C0004FF0FF373148007838B1304800780228A1
:1026D00003D02E480078032802D12D48066801E077
:1026E0004FF48036202407200090019601200290AC
:1026F000039005A8049044E00320FFF723FF98B15E
:102700000420FFF71FFF78B10520FFF71BFF58B12A
:102710000720FFF717FF38B10820FFF713FF18B1A4
:102720006FF003000AB0F0BD6846FFF75BFF054697
:1027300015B14FF0FF371AE016490598084201D04D
:102740004816EFE70320FFF7FDFE70B10420FFF706
:10275000F9FE50B10720FFF7F5FE30B10820FFF772
:10276000F1FE10B16FF00300DCE70020DAE7002093
:10277000099002E00998401C099009982028F9D393
:10278000641E002CB8D13846CCE7000021000010B0
:102790001C0000100880F8FDF0B58AB04FF0FF373C
:1027A0001C48007838B11B480078022803D019482B
:1027B0000078032802D11848056800E00025142499
:1027C00037200090019501200290039005A8049005
:1027D00019E06846FFF706FF064616B14FF0FF37CF
:1027E00007E0059810F0200F01D000270DE06FF0F2
:1027F00004070020099002E00998401C09900998FC
:102800002028F9D3641E002CE3D100BF38460AB05B
:10281000F0BD0000210000101C0000102DE9F04365
:102820008AB04FF0FF390126AA2747EA0628142567
:1028300008200090CDF8048001200290039005A8A4
:10284000049026E06846FFF7CDFE044614F0040F1E
:1028500002D06FF0020912E00598C0B2B84204D06D
:102860006FF001000AB0BDE8F0830598C0F30320C3
:10287000B04202D06FF00100F4E70020F2E7002040
:10288000099002E00998401C099009982028F9D382
:102890006D1E002DD6D14846E4E7000070B58AB021
:1028A0004FF0FF364FF4007501200090154801905D
:1028B00001200290039005A804901CE06846FFF7F1
:1028C00091FE044614F0040F02D06FF0020608E0F7
:1028D000059810F0004F02D16FF0020601E00026CB
:1028E0000BE00020099002E00998401C099009982B
:1028F0002028F9D36D1E002DE0D100BF30460AB06C
:1029000070BD00000080FF0070B58AB04FF0FF3648
:102910000420FFF717FE10B900200AB070BD202474
:102920000C2000900020019001200290039005A847
:1029300004902FE00520FFF705FE30B10620FFF7D9
:1029400001FE10B16FF00300E7E76846FFF74AFEAB
:10295000054615B14FF0FF3612E0104905980842C0
:1029600001D04816D9E70720FFF7ECFD30B104206D
:10297000FFF7E8FD10B16FF00300CEE70020CCE7D1
:102980000020099002E00998401C0990099820282D
:10299000F9D3641E002CCDD13046BEE70880F8FD87
:1029A0002DE9F0438AB0044688464FF0FF39B8F16C
:1029B000010F01D9192700E018272025009720488A
:1029C0000078032801D1019401E060020190012008
:1029D0000290039005A804902DE00420FFF7B2FDBB
:1029E00020B16FF003000AB0BDE8F0836846FFF73E
:1029F000F9FD064616B14FF0FF3912E0114905986E
:102A0000084201D04816EEE70620FFF79BFD30B1E3
:102A10000420FFF797FD10B16FF00300E3E70020FB
:102A2000E1E70020099002E00998401C099009980C
:102A30002028F9D36D1E002DCFD14846D3E70000E2
:102A4000210000100880F8FD00B50E48426B12F41A
:102A5000807F0CD080150B49886300200A490860EC
:102A60000A49086000F038FD00F044FB00BD12F494
:102A7000806F04D04FF4806002498863F6E700BF9E
:102A8000F4E7000000000C400000001004000010FB
:102A90001349486B10F0020F02D00221104A9163D3
:102AA00010F0080F02D008210D4A916310F0100FAA
:102AB00002D010210A4A916310F0200F02D0202189
:102AC000074A916310F4007F03D04FF40071044A69
:102AD00091630021034A11600349086070470000B8
:102AE00000000C40000000100400001010B5264843
:102AF000446B14F4804F21D014F4804F0FD023483E
:102B0000006800B910BD21490968214A1268881877
:102B100000F04EFD1E48006820301D4908601C482A
:102B20000068B0F5007F2DD11848006800F50070EE
:102B30001649086000201649086023E014F4004F8D
:102B400020D014F4004F0FD01248006800B9D9E724
:102B500010490968104A1268881800F037FB0E48BF
:102B6000006820300C4908600B480068B0F5007F11
:102B700008D10848006800F5007006490860002088
:102B80000549086000BFBDE700000C400C000010C4
:102B900014000010100000101800001070B58AB06A
:102BA00004464FF40076022000900020019002209D
:102BB00002900120039005A8049038E06846FFF7D2
:102BC00011FD054615F0040F27D11CB30598000E22
:102BD00020700598C0F30F2060800598207106983A
:102BE000A0600798000E2073DDE90710000E61F366
:102BF0001F2020610898C0F3045020750898C0F386
:102C00000B20E0820898C0F346002076089800F078
:102C10000100607600200AB070BD0020099002E03B
:102C20000998401C099009982028F9D3761E002E97
:102C3000C4D1F01EEFE70000F0B58AB0044620488A
:102C4000007838B11E480078022803D01C4800786C
:102C5000032802D11B48066801E04FF48036202586
:102C6000092000900196022002900120039005A8FF
:102C7000049021E00320FFF765FC18B16FF003001A
:102C80000AB0F0BD6846FFF7ADFC074657B93CB146
:102C900005982060069860600798A0600898E0603A
:102CA0000020EDE70020099002E00998401C0990FF
:102CB00009982028F9D36D1E002DDBD1681EDFE7AF
:102CC000210000101C00001001480068704700003F
:102CD0001C0000102DE9F0418AB004464FF0FF3887
:102CE0001CB900200AB0BDE8F0811A48007838B15C
:102CF00018480078022803D016480078032802D12B
:102D00001548076801E04FF4803720250D2000901A
:102D1000019701200290039005A8049015E06846F1
:102D2000FFF760FC064616B14FF0FF3803E0059848
:102D300020600020D6E76D1E0020099002E009986F
:102D4000401C099009981028F9D3002DE7D140467E
:102D5000C8E70000210000101C000010014890F995
:102D60000000704721000010F0B503460C4600211A
:102D700000260CB90020F0BD39E03248416B11F05B
:102D8000040F0ED041F004002E4FB8630020F8600D
:102D9000401EB860002600E0761C102EFCD30846CA
:102DA000E9E711F0010F1AD041F00100254FB86397
:102DB0003846C06800F03F05012D03D0292D01D011
:102DC0000C2D0AD100201F4FF860401EB86000266D
:102DD00000E0761C102EFCD30AE00846CBE711F089
:102DE000400F04D041F04000164FB86300E0C4E744
:102DF00000BF1448006900F03F0098420BD0012B3F
:102E000009D0292B07D0022B05D0092B03D04FF076
:102E1000FF310846AFE79AB1012C03D10948406958
:102E200010600DE0022C0BD1064840691060054887
:102E3000806950600348C06990600248006AD060B1
:102E4000002098E700000C4001480068704700002F
:102E500000000010014800687047000004000010E6
:102E600010B50F48446B40F23A20044202D0FFF7FD
:102E70000FFE10BD14F4A06F02D0FFF7E5FDF8E7D8
:102E80000848044202D0FFF731FEF2E740F6C500E1
:102E9000044202D0FFF782FBEBE700BFE9E7000046
:102EA00000000C4000C40F0038B50446FF208849DC
:102EB00008708848006820F01F008749C1F8880022
:102EC0000846D0F88C0020F01F00C1F88C0008469E
:102ED000D0F8940020F01F00C1F894000846D0F804
:102EE000980020F01F00C1F898000846D0F89C0018
:102EF00020F01F00C1F89C000846D0F8AC0020F07C
:102F00001F00C1F8AC000846D0F8B00000F01F0068
:102F1000C1F8B0007148006A41F6EC0140EA0100D6
:102F20006E4908624FF48050C8634FF40060C86374
:102F30004FF08000C8634FF04000C8634FF020009E
:102F400088634FF00800C8634FF00400C8634FF077
:102F50000000009002E00098401C00900098B0F53E
:102F6000801FF8D35E48006840F080505D49C1F88A
:102F7000C4005D48406810F4807F0ED05A48406815
:102F800020F48070584948600020009002E00098CA
:102F9000401C009000981028F9D35348006810F0A6
:102FA000020F0AD0002050490860009002E000980B
:102FB000401C009000981028F9D300204A49C863AB
:102FC00002221146012000F0D9FF02220321012034
:102FD00000F0D4FF02220521012000F0CFFF0222E1
:102FE0000621012000F0CAFF02220721012000F083
:102FF000C5FF02220B21012000F0C0FF02220C219C
:10300000012000F0BBFF3CB93848006820F0080000
:103010003449C1F8A00106E03448006840F00800D7
:103020003049C1F8A0016FF060402F4948624FF06D
:103030000000C860009002E00098401C00900098DA
:103040001028F9D300202849C862009002E00098B7
:10305000401C009000981028F9D340F2FF702249DC
:103060008863022008600020009002E00098401C65
:10307000009000981028F9D30020009002E00098FA
:10308000401C00900098B0F5002FF8D3184800F0CD
:10309000FDF91548006840F0010013490860002060
:1030A000009002E00098401C009000981028F9D38E
:1030B0001D200121814042094FF0E02303EB8202F1
:1030C000C2F8001100BFFFF7DBF9002038BD000097
:1030D0002100001088C0024000C00240008009208A
:1030E000C4C00F4000C00F4000000C40A0C10F4002
:1030F000801A06000348C06B48F22A7188430149D0
:10310000C863704700000C400348C06B48F22A7146
:1031100008430149C863704700000C40F8B50546F4
:103120000E46144600276002B0F5803F01D3B81E5A
:10313000F8BD1F48056040F2FF701E4988630020FB
:10314000C862009002E00098401C0090009810288F
:10315000F9D30420FFF7F6F910B16FF00300E7E7A9
:10316000FFF7D2FF144813494862600288620120C9
:10317000124908600020124908601249086012498B
:10318000087047F093070B48C7620020009002E0E8
:103190000098401C009000981028F9D32146304632
:1031A000FFF738FA10B14FF0FF30C1E70020BFE75A
:1031B0001000001000000C40404B4C0000000010BC
:1031C00004000010180000100800001030B504467C
:1031D0000E48007810B90022072301E008220F23CF
:1031E0000A48007808B9012000E00020074D287047
:1031F000114606E0064850F821002060241D481CB6
:10320000C1B29942F6DD002030BD00000800001078
:1032100080000C40F8B5014600200C684D688A68B3
:10322000CE6812E00027DFF89CC0CCF80C70009745
:1032300002E0009F7F1C0097009F102FF9D343F4FA
:103240000067DFF880C0CCF838701E4F7B6B13F43A
:10325000006FE7D104F03F07384312B920F0C000F7
:1032600008E0012A02D140F0400003E0022A01D127
:1032700040F0C000012E02D120F4807001E040F443
:10328000807040F4806040F2FF77DFF838C0CCF8FF
:1032900038706746BD60F8600027009702E0009F25
:1032A0007F1C0097009F102FF9D300BF054F7F6B45
:1032B000002FFBD000BF034F7F6B17F4006FFAD1D4
:1032C000F8BD000000000C40F0B58AB005464FF094
:1032D000FF372026102000900195012002900390D6
:1032E00005A8049023E00420FFF72CF918B16FF033
:1032F00003000AB0F0BD6846FFF774F9044614B144
:103300004FF0FF3709E00C490598084201D04816F4
:10331000EFE70420FFF716F9EBE70020099002E041
:103320000998401C099009982028F9D3761E002E90
:10333000D9D13846DDE700000880F8FD38B50446ED
:10334000002534B91648406820F4006014494860EC
:1033500008E0012C06D11248406840F40060104992
:1033600048600A250020009002E00098401C009070
:1033700000981028F9D30B48007838B10948007834
:10338000022803D007480078032806D12846FEF714
:10339000EFFF10B14FF0FF3038BD0020FCE7000018
:1033A00000000C4021000010F0B587B04FF0FF374F
:1033B0002848007838B127480078022803D02548EB
:1033C0000078032801D1002601E04FF48036202444
:1033D00003200090019601200290039005A804901C
:1033E00033E06846FFF7FEF8054615F0040F02D0FB
:1033F0006FF002071FE0059810F4807F02D16FF094
:10340000040718E00598C0F34320022802D06FF0AB
:10341000030710E04FF6FF71059801EA10400E49CE
:1034200008600846006800040860002000F016F8F4
:10343000002007B0F0BD0020069002E00698401C76
:10344000069006982028F9D3641E002CC9D138466E
:10345000EFE70000210000101C00001000210128EF
:1034600006D1094A126842F04002074B1A6005E093
:10347000054A126802F08302034B1A60002100E043
:10348000491C1029FCD3704700000C40F8B50446D5
:1034900000250120FDF7E2F80646022000FB04604B
:1034A000401E6100B0FBF1F505B16D1E0948406892
:1034B00020F0FF0040F48070284306494860002057
:1034C000009002E00098401C009000981028F9D36A
:1034D000F8BD000000000C400348C06B44F21A71B4
:1034E00088430149C863704700000C400348C06B23
:1034F00044F21A7108430149C863704700000C4048
:10350000F8B505460E46144600276002B0F5803F28
:1035100001D3B81EF8BD1F48056040F2FF701E4978
:1035200088630020C862009002E00098401C009070
:1035300000981028F9D30420FFF704F810B16FF0B9
:103540000300E7E7154814494862600288620120D9
:103550001349086000201349086013490870134993
:103560000860FFF7C3FF21463046FFF719FA10B194
:103570004FF0FF30CEE747F091070748C7620020C1
:10358000009002E00098401C009000981028F9D3A9
:103590000020BFE70C00001000000C40002D31019E
:1035A00000000010040000100800001014000010BB
:1035B00030B504460E48007810B90022072301E018
:1035C00008220F230A48007808B9012000E00020F3
:1035D000074D2870114606E00648256840F821503E
:1035E000241D481CC1B29942F6DD002030BD000008
:1035F0000800001080000C4070B505460E461446C9
:10360000224631462846FFF789FD90B900BFFFF7F3
:103610001BFC0028FBD1012C04D9FFF775F908B178
:10362000012070BDFFF716FC08B10120F9E700206A
:10363000F7E70120F5E770B505460E461446224629
:1036400031462846FFF75CFF90B900BFFFF7FCFB4F
:103650000028FBD1012C04D9FFF756F908B101204D
:1036600070BDFFF7F7FB08B10120F9E70020F7E78D
:103670000120F5E710B50020FFF716FC08B1204641
:1036800010BD05F031FB012803D124F001000446F0
:1036900002E044F00200044600BFF1E72DE9FC47D8
:1036A00081460D461646B046002703E0002008F884
:1036B000010B7F1C1D4800686843B842F6D80A20F9
:1036C000282180232A46CDE9001018480168484681
:1036D000FDF712FF1F2316484FF40021026815481A
:1036E0000068FEF713FC0446ECB91048006800FBC4
:1036F00005F332464FF480110F480068FEF706FCD0
:10370000044684B90D230A484FF4801102680A4820
:103710000068FEF7FBFB04462CB905480068007BF7
:1037200008B16FF009042046BDE8FC877000002056
:1037300054000020400000203C0000202DE9FC4106
:1037400006460D4617460A202A2100232A46CDE9BF
:103750000010184801683046FDF7CEFE1F231648BA
:103760004FF40021026815480068FEF7CFFB0446BD
:10377000ECB91048006800FB05F33A464FF400210D
:103780000E480068FEF7C2FB044684B90D230A48C0
:103790004FF4801102680A480068FEF7B7FB044640
:1037A0002CB905480068007B08B16FF00904204679
:1037B000BDE8FC8170000020540000204000002083
:1037C0003C0000201CB507480068012100231A4670
:1037D000CDE90010FE21A120FEF748F9044620465D
:1037E0001CBD0000540000201CB5062003218023CE
:1037F0000022CDE9001011461046FDF77DFE1F2383
:1038000013484FF40021026812480068FEF77EFB5F
:103810000446DCB912230E484FF4801102680E48AA
:103820000068FEF773FB044684B90D2308484FF483
:103830008011026808480068FEF768FB04462CB94E
:1038400003480068007B08B16FF0090420461CBDE6
:1038500054000020400000203C0000202DE9F041F1
:1038600005460E461746FFF7ADFF4FF050080AE039
:1038700000F0B6F8044604B908E0FFF7B5FFA8F178
:10388000010000F0FF08B8F1000FF1D100BF14B142
:103890002046BDE8F0812946304600F059F804463C
:1038A000044928680860384600F006F804462046B7
:1038B000EFE70000700000207CB5044606201221CE
:1038C00080230022CDE9001011461046FDF714FEBA
:1038D0001F231C484FF4002102681B480068FEF7B4
:1038E00015FB05465DBB242316484FF48011026882
:1038F00016480068FEF70AFB054605BB74B10026B2
:103900000AE010480068007804F8010B0D480068D0
:10391000401C0C490860761C242EF2D30D23094864
:103920004FF48011026809480068FEF7EFFA054677
:103930002DB904480068007B08B16FF009052846DE
:103940007CBD000054000020400000203C0000200E
:103950007CB505460E460A20252180230022CDE9AC
:10396000001011461046FDF7C7FD1F2319484FF4FC
:103970000021026818480068FEF7C8FA04463CBBFC
:10398000082314485904026814480068FEF7BEFA78
:103990000446ECB925B10F48006800F071FB2860BF
:1039A0002EB10C480068001D00F06AFB30600D234A
:1039B00008484FF48011026808480068FEF7A6FA2C
:1039C00004462CB903480068007B08B16FF0090475
:1039D00020467CBD54000020400000203C00002018
:1039E0001CB50620002101230A46CDE90010084637
:1039F000FDF782FD1F230E484FF4002102680D4899
:103A00000068FEF783FA044684B90D2308484FF492
:103A10008011026808480068FEF778FA04462CB95D
:103A200003480068007B08B16FF0090420461CBD04
:103A300054000020400000203C00002010B5FDF79D
:103A4000E9FD00221221042000F098FA0022112141
:103A5000042000F093FA00221021042000F08EFAD6
:103A600000221321042000F089FA002214210420EE
:103A700000F084FA012291040420FDF7D1FD012217
:103A800051040420FDF7CCFD012211040420FDF7B0
:103A9000C7FD0122D1040420FDF7C2FD012211055A
:103AA0000420FDF7BDFD01200D4908700D49087087
:103AB0000D4908700D490870122001F080F80121AD
:103AC000042000F0E6FE0121052000F0E2FE0121C5
:103AD000062000F0DEFE0121072000F0DAFE10BD16
:103AE0005E0200105F020010600200106102001010
:103AF0002DE9F74F84B00C4616460020019021783E
:103B0000CC4A0498105C814200D090E1601C039084
:103B1000A07802904FF6FF71029801EA002002900F
:103B2000E07802990843029003980078032851D165
:103B3000A7794FF6FF7000EA0727E0790743B01E28
:103B400081B22046FCF702FE0546AF4200D06EE18E
:103B500004F10309032694F804804FF6FF7000EA8D
:103B60000828607940EA080804F1020A00208AF86F
:103B700000001EE06A460299049804F079FFBDF83F
:103B8000000089F80100BDF80000001289F800006B
:103B9000B01CC6B209F10209A8F101001FFA80F8B1
:103BA0000298401C80B202909AF80000801C8AF8AB
:103BB0000000B8F1000FDDDC31462046FCF7C6FD01
:103BC00005462812A055701C2554B01CC0B207B081
:103BD000BDE8F08F0398007806282DD1A7794FF61D
:103BE000FF7000EA0727E0790743B01E81B2204644
:103BF000FCF7ACFD0546AF4200D018E120790190FA
:103C0000BDF804004FF6FF7101EA002001906079D1
:103C1000BDF8041008430190BDF8042002990498EF
:103C200004F03EFF06212046FCF790FD05462812D1
:103C3000A071E5710820CAE703980078102854D1D4
:103C4000A079C01D275C4FF6FF7000EA0727A07916
:103C50000830205C0743B01E81B22046FCF776FD99
:103C60000546AF4200D0E2E004F1070994F8048071
:103C70004FF6FF7000EA0828607940EA08084FF024
:103C8000000B25E00BF10700205C0190BDF804005B
:103C90004FF6FF7101EA002001900BF10800205C53
:103CA000BDF8041008430190BDF80420029904985F
:103CB00004F0F6FEA8F101001FFA80F80298401CFB
:103CC00080B2029009F102090BF1020000F0FF0B33
:103CD000B8F1000FD6DC06212046FCF737FD05467B
:103CE0002812A071E571082071E703980078052873
:103CF0002DD1A7794FF6FF7000EA0727E079074337
:103D0000B01E81B22046FCF721FD0546AF4200D02F
:103D10008DE020790190BDF804004FF6FF7101EAB3
:103D2000002001906079BDF8041008430190BDF8AF
:103D3000040028B900220299049804F081FE04E0EE
:103D400001220299049804F07BFE08203FE70398C3
:103D50000078012869D1A7794FF6FF7000EA07279C
:103D6000E0790743B01E81B22046FCF7EFFC054620
:103D7000AF4200D05BE004F10309042694F804800C
:103D80004FF6FF7000EA0828607940EA080804F15D
:103D9000020A01208AF800004FF0000B002089F889
:103DA000000033E001AA0299049804F031FEBDF846
:103DB000040008B101200190BDF8040000FA0BF0E6
:103DC00080B2019099F80000BDF80410084489F809
:103DD00000000BF1010000F0FF0BBBF1080F0DD14B
:103DE0004FF0000B701CC6B209F10109002089F8E0
:103DF00000009AF80000401C8AF80000A8F10100B9
:103E00001FFA80F80298401C80B20290B8F1000FAF
:103E1000C8DC31462046FCF799FC05462812A0551F
:103E2000701C2554B01CC0B2D1E60020CFE60020A3
:103E3000CDE600007400002070B50446204600F076
:103E400053F90C4850F824000B4909680D1A022D4B
:103E50000ED90A48005D00280ADD0948005D38B91E
:103E60002046FCF78FFC04480068024941F8240012
:103E700070BD000084000020200500207600002096
:103E80007800002010B5044600F00DF8002801DA93
:103E9000002010BD206800F021F8002801DA002081
:103EA000F7E70120F5E770B500254FF40041002049
:103EB000FCF76EFF4FF480140BE00020FCF7A0FE2F
:103EC000054615F4084F00D105E00CB9002070BD7F
:103ED000641E002CF1DA00BF0120F8E72DE9F04163
:103EE00004464FF47A770220FCF78AFE80460320CE
:103EF000FCF786FE0646052C28D2DFE804F0030F07
:103F0000151B21004FF480510020FCF741FF4FF4B6
:103F1000801500E06D1E002DFCDA1BE04DF6FF71F0
:103F20000020FCF735FF15E04FF6FF710020FCF78D
:103F30002FFF0FE04FF404510020FCF729FF09E0A8
:103F40004FF6FF610020FCF723FF03E04FF0FF3046
:103F5000BDE8F08100BF00F007F8002802DA4FF05A
:103F6000FF30F5E70020F3E710B50120FCF780FEF5
:103F70000120FCF797FE002010BD00002DE9F04164
:103F800006460F46154600243946304600F01AF81A
:103F90008046B8F1050F02D10948BDE8F0813946E5
:103FA000304600F061F80446206820F007002060E9
:103FB00005F007012068084320600020EDE70000BD
:103FC0000100001002460520062A4AD2DFE802F06E
:103FD000032F393A3B3D062907DD0A2901DB0B296E
:103FE00003DD0E2903DB162901DC00201EE00C296D
:103FF00005D00D2903D0172903DB1A2901DC012084
:1040000014E01D2903D01E2901D01F2901D102204F
:104010000CE01B2901D01C2901D1032006E007294F
:1040200003D0082901D0092900D104201AE01D2954
:1040300001DC002004E01E2901D01F2900D101204D
:1040400010E000BF00BF00200CE0012901DD0429C1
:1040500001D1002004E0022901D0032900D103206E
:1040600000E000BF00BF704710B50246002001EB22
:104070004213024C04EB830010BD000000C002405C
:1040800008B50146C8788DF8000088788DF80100E1
:1040900048788DF8020008788DF80300009808BD74
:1040A00008B5014608788DF8000048788DF80100C1
:1040B000BDF8000008BD0000B0F5FA6F00DB7047E6
:1040C000024A32F810200A8000BFF8E7000010A072
:1040D000B0F5FA6F00DB7047024A22F8101000BFFB
:1040E000F9E70000000010A010B504461648005D76
:1040F00048BBECB917E0FDF7A1FB144901EB042123
:10410000134A125D88541248005D401C104908553E
:104110000846005DFF2801DDFF2008550D480068B6
:104120000D4941F82400FDF78FFB0028E3D10AE098
:10413000012C08D103E0FDF773FB08490870FDF777
:1041400075FB0028F7D110BD78000020781F0020F3
:10415000760000202005002084000020AC00002014
:104160002DE9F04798B004460F4690469946DDF891
:1041700080A0012C01DB082C03DD002018B0BDE875
:10418000F087142602940397CDF81080CDF8149090
:10419000CDF818A017A8324607AB02A9009010204E
:1041A00000F06CFA05460DB90020E7E74FF0FF304C
:1041B000E4E700001CB57048006840F400606F49F7
:1041C000C1F8C40041F210006D4908604FF00100D1
:1041D0006C4908604FF0000088604FF021006A4988
:1041E000086001F10401086001F10401086001F1B7
:1041F0000401086001F10401086001F10401086094
:1042000001F10401086001F10401086001F10401F9
:10421000086001F10401086001F10401086001F186
:104220000401086001F10401086001F10401086063
:1042300001F10401086001F10401086053490860BC
:1042400001F10401086001F10401086001F10401B9
:10425000086001F10401086001F10401086001F146
:104260000401086001F10401086001F10401086023
:1042700001F10401086001F10401086001F1040189
:10428000086001F10401086001F10401086001F116
:10429000040108603E4908603E49086001F10401DC
:1042A000086001F1040108603B4908603B4908606F
:1042B0003B49086001F1040108604FF001003149F9
:1042C00008634FF0030048634FF0050088634FF028
:1042D0000100C8634FF0050008644FF00100486416
:1042E0004FF005008864C86408654FF00100486518
:1042F0008865886240F202202A4908604FF42070E5
:104300002049C1F800014FF0640005F09EFD40F225
:1043100083101C4908620020019002E00198401CB3
:1043200001900198B0F5004FF8D340F20310154901
:1043300008620020019002E00198401C0190019861
:104340008028F9D302200F4948620020019002E042
:104350000198401C019001988028F9D34220094916
:10436000486283200862104800880090002008629C
:104370000E480F4908601CBDC4C00F4000C00F406C
:10438000DCC10F4000C0092080C1024000C20240D1
:1043900064C2024040C1024050C1024060C10240BC
:1043A00070C1024004C10920001801A08002080069
:1043B00000C109202DE9F047ADF6482D784C661470
:1043C0008CA800F005FA05462DB14FF0FF300DF630
:1043D000482DBDE8F0877348D0F8008000BF08F191
:1043E0006400704909688842F9D38CA800F03CFA4F
:1043F000054615B14FF0FF30E9E701226AA103A895
:1044000002F0AAFD8246172103A802F0B7FC8EAB8A
:10441000042291A903A802F05DFE8EAB042290A9AC
:1044200003A802F057FE8EAB04228FA903A802F066
:1044300051FE002755E08EAB01228DA903A802F0A2
:1044400049FE9DF834220598811803A802F096FCD5
:104450008EAB042202A903A802F03CFE8EAB02221E
:1044600001A903A802F036FE200E8DF84802200CA8
:104470008DF84902200A8DF84A02E0B28DF84B020D
:104480000298044430128DF84C02F0B28DF84D02BF
:104490008EAB0DF24E2103A8029A02F01BFE8E99FC
:1044A0000298884202D06FF0010090E78E9881B2A6
:1044B0000DF24E20FCF74AF98146BDF8041049453B
:1044C00002D06FF0020082E78E98801D82B292A91E
:1044D0008CA800F092F9054615B14FF0FF3076E751
:1044E0007F1C90988742A6DB200E8DF84802200C96
:1044F0008DF84902200A8DF84A02E0B28DF84B028D
:104500008F9886B230128DF84C02F0B28DF84D02C1
:104510008EAB01228DA903A802F0DCFD9DF83422A8
:104520000598811803A802F029FC8EAB042202A989
:1045300003A802F0CFFD8EAB022201A903A802F06E
:10454000C9FD8EAB0DF24E2103A8029A02F0C2FD06
:104550008E98801D82B292A98CA800F04EF9054673
:1045600015B14FF0FF3032E78CA800F068F905462E
:1045700015B14FF0FF302AE70A48D0F8008000BF9D
:1045800008F16400074909688842F9D3FDF7DAFEAB
:104590008C908C9808B9002019E74FF0FF3016E78F
:1045A0000030000820050020313A2F53544D33329B
:1045B0002D352E53544D3332000000004FF0E020D3
:1045C000006920F480304FF0E02108617047012835
:1045D00008D14FF0E021096941F001014FF0E022DC
:1045E000116107E04FF0E021096921F001014FF06E
:1045F000E02211617047012808D14FF0E0210969DC
:1046000041F002014FF0E022116107E04FF0E0219C
:10461000096921F002014FF0E022116170472DE994
:10462000F04104460020FCF719F805464FF47A7073
:10463000B5FBF0F04FF08071B1FBF0F7384605F0B4
:10464000B9FF0646204605F0B5FF0746314606F09D
:104650003FF801D200BFFEE74FF0E020006940F0D4
:1046600004004FF0E02108614FF47A70B5FBF0F0E0
:104670006043401E4861BDE8F08100002DE9FE4F17
:1046800080460E4614469946DDF830B04FF0000AD9
:104690000020029001900025002721463046FCF7BB
:1046A00055F8824600BF01F0B1FE692001F0A0FE7E
:1046B000404601F09DFE201201F09AFEE0B201F0AA
:1046C00097FE002703E0F05D01F092FE7F1CA742F9
:1046D000F9D3404601F08CFE4FEA2A2001F088FE13
:1046E0000AF0FF0001F084FE00202E4908702E49D8
:1046F000087001F086FE2D480068019025E02B48E7
:1047000001680198081A2A49098888420ED96D1C47
:1047100028480088854205D827480068401C26495B
:104720000860C0E74FF0FF30029038E001F03FFE34
:1047300058B104E001F050FE0090FBF7D9FE01F003
:1047400041FE0028F6D001F057FE174800780028F7
:10475000D5D01A48007818B91948007840450DD0CE
:104760006D1C14480088854205D816480068401C16
:104770001449086097E70120029010E01248008871
:10478000ABF8000010480088002805DD0E480288BC
:104790000E494846FBF7D3FD0020BDE8FE8F029886
:1047A000FBE7000044020010540200102005002026
:1047B00040020010420200104C020010550200108E
:1047C00056020010480200105802001004030010A6
:1047D00070B594B00446002513A82A4603AB02A97D
:1047E0000090A020FFF74AFF064616B1681E14B0DD
:1047F00070BD039820600020F9E72DE9F04393B0E5
:1048000004460E4615460FFA85F84FF0000912A827
:104810001FFA88F202AB31460090A120FFF72EFF6D
:1048200007461FB9BDF84800012804D04FF0FF30FB
:1048300013B0BDE8F083029820600020F8E770B55F
:1048400094B00446002513A82A4603AB02A90090A1
:10485000A320FFF713FF064616B1681E14B070BD03
:10486000039820600020F9E770B594B00446002555
:1048700013A82A4603AB02A90090A220FFF7FEFE70
:10488000064616B1681E14B070BD03982060002063
:10489000F9E72DE9F04194B080460E46022702A8C0
:1048A0000446B8F1100F72D2DFE808F0081D30435B
:1048B000565F68727B8EA1B4C7DAEDFD00202070D0
:1048C000641C267013A8BAB203AB02A9009005209D
:1048D000FFF7D4FE05461DB9002014B0BDE8F081F5
:1048E0004FF0FF30F9E701202070641C267013A8F8
:1048F000BAB203AB02A900900520FFF7BFFE054640
:104900000DB90020E9E74FF0FF30E6E70220207004
:10491000641C267013A8BAB203AB02A9009005204C
:10492000FFF7ACFE05460DB90020D6E74FF0FF308B
:10493000D3E703202070641C267013A8BAB203AB1F
:1049400002A900900520FFF799FE05460DB9002049
:10495000C3E74FF0FF30C0E71EB1112000F02FF980
:1049600002E01120FCF704F8B5E01EB1102000F0C1
:1049700026F902E01020FBF7FBFFACE01EB113208C
:1049800000F01DF902E01320FBF7F2FFA3E0A1E025
:104990001EB1142000F013F902E01420FBF7E8FF29
:1049A00099E008202070641C267013A8BAB203ABEB
:1049B00002A900900520FFF761FE05460DB9002011
:1049C0008BE74FF0FF3088E709202070641C2670C9
:1049D00013A8BAB203AB02A900900520FFF74EFE60
:1049E00005460DB9002078E74FF0FF3075E70A2043
:1049F0002070641C267013A8BAB203AB02A9009001
:104A00000520FFF73BFE05460DB9002065E74FF096
:104A1000FF3062E70B202070641C267013A8BAB226
:104A200003AB02A900900520FFF728FE05460DB94B
:104A3000002052E74FF0FF304FE704202070641C45
:104A4000267013A8BAB203AB02A900900520FFF7A5
:104A500015FE05460DB900203FE74FF0FF303CE75B
:104A600005202070641C267013A8BAB203AB02A9FB
:104A700000900520FFF702FE05460DB900202CE747
:104A80004FF0FF3029E706202070641C267013A821
:104A9000BAB203AB02A900900520FFF7EFFD05466F
:104AA00015B9002019E702E04FF0FF3015E70720A5
:104AB0002070641C267013A8BAB203AB02A9009040
:104AC0000520FFF7DBFD05460DB9002005E74FF097
:104AD000FF3002E700BF00BF00BFFEE62DE9F04F48
:104AE00097B005460E4617469846DDE920AB4FF0D5
:104AF000140901AC2570641C2670641C2770641CAA
:104B000084F80080641C84F800A0641C84F800B061
:104B1000641C22982070641C23982070641C2498C4
:104B20002070641C25982070641C26982070641CDA
:104B300027982070641C28982070641C2998207085
:104B4000641C2A982070641C2B982070641C2C987C
:104B50002070641C2D982070641C2E982070641C9A
:104B60002F982070641C15A84A4605AB01A9009037
:104B70000B20FFF783FD1690169818B9002017B088
:104B8000BDE8F08F4FF0FF30F9E7F0B593B0054680
:104B9000022601AC280A2070641C2570641C12A82F
:104BA000324602AB01A900900A20FFF767FD0746D5
:104BB00017B9002013B0F0BD4FF0FF30FAE710B581
:104BC0000446012000FA04F10420FCF73DFD10BD6D
:104BD000F0B595B004460F46012C01DB082C02DD30
:104BE000002015B0F0BD05260297E0B28DF80C004C
:104BF00014A8324604AB02A900902020FFF73EFD26
:104C000005460DB90020ECE74FF0FF30E9E7000062
:104C100070B50446002501220E210220FFF7AEF9EF
:104C200001220F210220FFF7A9F900260AE0F1B2C4
:104C300001220320FFF7A2F9F1B201220420FFF7BD
:104C40009DF9761C202EF2D3012200210520FFF7CA
:104C500095F9012211460520FFF790F9FCF7B8F805
:104C60000543607928B12C48006840F002002A49C9
:104C7000086061782078FCF707FA0543A07828B12E
:104C800020780821FCF7C4FA054304E020780021CD
:104C9000FCF7BEFA0543E07828B120788021FCF7C4
:104CA0005BFA054304E020780021FCF755FA054340
:104CB000207930B120784FF48071FCF789F90543F1
:104CC00004E020780021FCF783F90543A2792078DD
:104CD0000021FCF79BF80543E27920780121FCF7DD
:104CE00095F80543227A20780221FCF78FF80543D6
:104CF000627A20780321FCF789F80543A27A2078AC
:104D00000421FCF783F80543E27A20780521FCF7BB
:104D10007DF80543284670BD00C0092010B5FFF797
:104D20004DFC0B480068401D0949086009480068AF
:104D3000401C0849086008460068400806490860A9
:104D40000648006810B105480068804710BD0000A3
:104D50001C05002024050020200500202805002037
:104D600030B5A548006810F4807F6BD1A348006877
:104D700010F0010F2CD1A048006810F01F0F01D1D6
:104D8000002006E09C48006800F01F009C49B1FB31
:104D9000F0F09C4908609C48006810F01F0F01D19A
:104DA000002006E09848006800F01F009449B1FB1D
:104DB000F0F0964908609648006800F0010000F1A4
:104DC000010090490968B1FBF0F092490860B6E033
:104DD0009148006810F0400F07D100208949086011
:104DE0008A4908608B490860A9E08348006810F090
:104DF0001F0F01D1002006E07F48006800F01F006F
:104E00007F49B1FBF0F07F4908607F48006810F0EF
:104E10001F0F01D1002006E07B48006800F01F0052
:104E20007749B1FBF0F0794908607948006800F0F3
:104E3000010000F1010073490968B1FBF0F0754908
:104E400008607CE07548006810F4807F07D100207E
:104E50006C4908606D4908606E4908606FE06748FA
:104E6000006810F0010F2ED16C4C246804F01F0470
:104E700004F101006A4CD4F8044104F01F01624CB3
:104E8000246804F01F02664CD4F8004104F00104C9
:104E900004F1010309B9002403E0594C4443B4FB75
:104EA000F1F4584D2C600AB9002403E0544C4443FB
:104EB000B4FBF2F4554D2C60524C2468B4FBF3F46F
:104EC000544D2C603BE05448006810F0400F07D16F
:104ED00000204C4908604D4908604E4908602EE0AA
:104EE0004E4C246804F01F0404F101004C4CD4F82B
:104EF000044104F01F01444C246804F01F02484C94
:104F0000D4F8004104F0010404F1010309B90024BC
:104F100003E03B4C4443B4FBF1F43A4D2C600AB936
:104F2000002403E0364C4443B4FBF2F4374D2C60CC
:104F3000344C2468B4FBF3F4364D2C6000BF394880
:104F4000006810F4807F31D03648006810F01F00F0
:104F500004D0042806D0062823D104E000203249DA
:104F6000086022E000BF2D4A126802F01F0202F121
:104F700001002B4AD2F8082102F01F011F4A1268D3
:104F800012F0010F06D01E4A4243B2FBF1F2264B4B
:104F90001A6005E01A4A4243B2FBF1F2224B1A6052
:104FA00003E000202049086000BF24E01D4800689D
:104FB00010F4007F1CD01148006810F0010F0BD0D6
:104FC0001A48006800F01F0000F101000C4900FBC6
:104FD00001F0154908600EE01048006800F01F005D
:104FE00000F10100064900FB01F00F49086002E0F2
:104FF00000200D49086030BD04C10F400CC10F40B6
:10500000001BB70000000020A8C10F4004000020D2
:1050100000C10F4008000020A0C10F4088C00F4011
:1050200000C00F4008C10F400C000020A8C00F4076
:1050300021203049086000BF2E48006810F0400F62
:10504000FAD001202C4908604FF009002B49C1F823
:1050500084004FF001002A4908604FF0AA00294956
:1050600008604FF05500086000BF2748006810F442
:10507000806FFAD02320254908604FF001001F49B6
:10508000C1F8A0004FF0AA00214908604FF0550078
:105090001A49C1F8AC0000BF1E48006810F4806FC8
:1050A000FAD040F201101C49086040F20120134977
:1050B000C1F808014FF00100184908604FF00200E4
:1050C000174908601748184908604FF480700B4969
:1050D000C1F8C8010846D0F8B00140F003001349F8
:1050E000086045F23A00054908604FF00000104999
:1050F00008607047A0C10F400CC10F4000C00F40B6
:1051000080C00F408CC00F4088C00F40A4C00F402B
:10511000ACC00F40A8C00F4004C10F4000C10F40F9
:10512000A8C10F40DE872804C4C00F40B0C10F40A3
:1051300008ED00E010B50021034800F00BF8002155
:10514000014800F003F810BD0000094001228A4028
:105150000260704710B50246106801248C40204060
:10516000C3B20BB1012010BD0020FCE710B504460E
:105170001048005D01281BD10F48005D002814DD98
:105180003CB90D4A115D0D4A52F82400FCF7DEFBD4
:1051900008E0012C06D1084A115D084A52F82400A3
:1051A000FCF7A4FB002003490855002001490855DD
:1051B00010BD000078000020760000207C00002058
:1051C00070B5002000F0AEF8054605F00E04062C80
:1051D00005D1002000F0D8F8064606F09E06042C03
:1051E00001D00C2C0AD1064800680649064A12680C
:1051F000885405480068401C0349086070BD0000E1
:1052000000C00040207000102C05002070B5022066
:1052100000F088F8054605F00E04062C05D10220A2
:1052200000F0B2F8064606F09E06042C01D00C2CC5
:105230000AD1064800680649064A1268885406489A
:105240000068401C0449086070BD000000800940EF
:10525000607000102C0500203005002003214171F2
:10526000002101718171704710B50246002040F0A5
:105270000100CB7833B1012B06D0022B07D0032BD2
:1052800008D108E000BF09E040F0400006E040F02F
:10529000800003E000BF40F0C00000BF00BF4B78BB
:1052A000012B01D140F004000B78012B01D140F01B
:1052B00002008B78012B01D140F00800052A1DD295
:1052C000DFE802F003080D12170000F0CF030C4CCA
:1052D000237213E000F0CF030A4C23720EE000F0BB
:1052E000CF03094C237209E000F0CF03074C23726F
:1052F00004E000F0CF03064CA36000BF00BF10BD68
:1053000000C00040000001400080094000C009408A
:1053100000400A4000218170C1700121017041707C
:10532000704700000146052922D2DFE801F0030999
:105330000F151B000F48806840F2CF3210407047B5
:105340000D48806840F2CF321040F8E70B48806883
:1053500040F2CF321040F2E70948806840F2CF3285
:105360001040ECE70748806840F2CF321040E6E793
:105370000020E4E700C00040000001400080094038
:1053800000C0094000400A400146052914D2DFE868
:1053900001F00306090C0F000848007D704708481B
:1053A000007DFBE70748007DF8E70748007DF5E74B
:1053B00006484069C0B2F1E70020EFE700C00040B6
:1053C000000001400080094000C0094000400A4040
:1053D0002DE9F04106460F46052E3CD2DFE806F0E7
:1053E000033C04056C0000BF00BF304604F06EFDB6
:1053F000054626B901210820FBF718F90CE0022E1A
:1054000004D101210806FBF711F905E0032E03D1B1
:1054100001214806FBF70AF90720287200202872AC
:1054200000E02C78287D10F0010FFAD1802085F85B
:10543000300000BF287D10F0200FFBD0002085F841
:10544000300068602873286285F84C0085F85400A5
:1054500085F850002C7D57E001211020FBF7E6F87D
:1054600007205E4908720020087201E05B4804785A
:105470005A48007D10F0010FF8D18020584908707B
:1054800000BF5648007D10F0200FFAD0002054498C
:105490000870524948600873086281F84C0051490D
:1054A00008704E4981F850000846047D4FF0000016
:1054B00008740846047E27E001210802FBF7B6F8CD
:1054C0000720494988600020886001E04648046858
:1054D0004548406910F0010FF8D101204249C865E4
:1054E00000BF4148406910F0200FFAD000203E492B
:1054F000C8654860C8600862C864486508650846B1
:1055000044690020486200BF00BF3046396804F09B
:10551000F5FC012E04D13148007B00F0C0040EE000
:10552000042E04D13048C06800F0C00407E03046C3
:1055300004F0CCFC0546287B00F0C00400BF78795D
:1055400030B1012806D0022807D0032808D108E08E
:1055500000BF09E044F0010406E044F0020403E067
:1055600000BF44F0030400BF00BF3879C0B144F06D
:1055700008043879012806D0022806D0032807D06D
:1055800004280BD107E000BF09E044F0100406E056
:1055900044F0200403E044F0300400E000BF00BF0A
:1055A000B87928B1012802D144F0040401E000BF19
:1055B00000BF00BF012E02D108490C730BE0042E7E
:1055C00003D1E0B20849C86005E0304604F07EFC33
:1055D00005462C7300BFBDE8F081000000000140CB
:1055E000300001405400014000400A402DE9FF4FC7
:1055F00081B080468A469346574600200090B8F115
:10560000050F13D2DFE808F00306090C0F002B4842
:1056100000900BE02A48009008E02A48009005E03E
:105620002948009002E02948009000BF00BF5C4676
:105630000498012824D100251FE04FF0FF3905E030
:10564000B9F1000F00D106E0A9F101090098006846
:1056500010F0200FF4D000BFB9F1000F00D10EE020
:10566000102607E017F8011B404600F031F8761EBF
:10567000641E6D1C0EB1002CF4D1002CDDD119E09C
:10568000002514E004B914E00098006810F0200F21
:1056900000D10EE0102607E017F8011B404600F08D
:1056A00017F8641E761E6D1C0EB1002CF4D1002C70
:1056B000E8D100BF284605B0BDE8F08F14C0004017
:1056C000140001401480094014C0094014400A40ED
:1056D000052814D2DFE800F00306090C0F00094B7F
:1056E00019700CE0084B197009E0084B197006E0BE
:1056F000074B197003E0CAB2064B1A6000BF00BF27
:105700007047000000C000400000014000800940D8
:1057100000C0094000400A4070B504460D46012D06
:105720001DD1012C07D11C48007840F080001B4996
:1057300081F830002FE0042C06D11948C06D40F0EC
:1057400001001749C86526E0204604F0BFFB064665
:1057500096F8300040F0800086F830001BE0012C05
:1057600007D10D4800784FF000000C4981F8300057
:1057700011E0042C05D10A48C06D00200849C86515
:1057800009E0204604F0A2FB064696F8300000200F
:1057900086F8300000BF70BD3000014000000140BD
:1057A00000400A404C4AD0681169084200D1704755
:1057B000084010F0400F75D0474A526D12F4803FF8
:1057C0002CD0454A126D12F4004F06D0434A12689D
:1057D00042F00102414B1A601CE03F4A526D12F048
:1057E000010F0ED000223E4B1A703E4B1A603B4A0E
:1057F000126842F00102394B1A6001223A4B1A60DA
:1058000008E0364A126822F00102344B1A60002286
:10581000354B1A604FF480322F4B5A652E4A926DE9
:1058200012F4803F2CD02C4A126D12F4004F06D097
:105830002A4A126842F00202284B1A601CE0264AEB
:10584000926D12F0010F0ED00022254B1A70254BDD
:105850001A60224A126842F00202204B1A600122AA
:10586000214B1A6008E01D4A126822F002021B4B0D
:105870001A6000221C4B1A604FF48032164B9A6556
:10588000154A526D12F4801F03D04FF48012124B50
:105890005A65114A926D12F4801F03D04FF48012A2
:1058A0000D4B9A6510F0020F0AD001220D4B1A60C1
:1058B0000E4A126812680F2303EA1272084B1A701C
:1058C00010F0100F04D00A4A1268521C084B1A60DC
:1058D000014AD06000BF6AE700C00820280000200D
:1058E000300000202C000020200000204400002078
:1058F0003400002010B58CB0FCF738FAFCF740F902
:10590000044664B9FCF71EFA48B901AA0BA90AA813
:10591000FDF7A4FF044624B101200CB010BD012006
:10592000FBE70020F9E700002DE9F04107460E46AD
:1059300014460B480068844201D309480460A1B2B0
:10594000084802683046FDF7A9FE05462DB96202F7
:10595000044801683846FAF7F2FC2846BDE8F081B1
:1059600038000010580000202DE9F04106460F468F
:1059700014460F480068401C0D4908600D48006837
:10598000844201D30B480460620231460A48006831
:10599000FAF7D5FCA1B2084802683846FDF7CEFEFA
:1059A000054615B10120BDE8F0810020FBE70000AD
:1059B0003C000010380000105800002003B59DF88E
:1059C000051001709DF8041041700CBD03B59DF8E1
:1059D000071001709DF8061041709DF80510817048
:1059E0009DF80410C1700CBD03B59DF80410017042
:1059F0009DF8051041700CBD03B59DF804100170B1
:105A00009DF8051041709DF8061081709DF80710F3
:105A1000C1700CBD70B504460D4600202071401EBB
:105A2000E0622946204603F025FD08B1032070BD41
:105A300094F82E1294F82F0241EA0020A0F52A4192
:105A4000553901D00220F2E794F86900010694F874
:105A5000680041EA004194F8670041EA002094F8A8
:105A60006610084320F07F400D49884201D1002094
:105A7000DDE794F88500010694F8840041EA0041CE
:105A800094F8830041EA002094F88210084320F043
:105A90007F400349884201D10020C8E70120C6E7C2
:105AA00046415400024600E0521C107810B11078B4
:105AB0008842F9D1107870470246891E5069801ECD
:105AC000884201D8002070479378906A01FB030058
:105AD000F9E700002DE9F04780460C46A17EE07E04
